:020000040800F2
:10000000E84800201D030008250300082703000816
:10001000290300082B0300082D030008000000003E
:100020000000000000000000000000002F03000896
:100030003103000800000000171F00085564000885
:10004000370300083703000837030008E962000897
:100050003703000837030008370300083703000898
:100060003703000889230008B52300083703000878
:100070003703000837030008370300083703000878
:100080003703000837030008370300083703000868
:100090003703000837030008370300083703000858
:1000A0003703000837030008370300083703000848
:1000B0003703000837030008370300083703000838
:1000C0003703000837030008370300083703000828
:1000D00037030008B56A0008396B000837030008C9
:1000E0003703000869620008370300083703000877
:1000F00037030008370300083703000837030008F8
:1001000037030008370300083703000837030008E7
:1001100037030008370300083703000837030008D7
:1001200037030008370300083703000837030008C7
:1001300037030008370300083703000837030008B7
:1001400037030008370300083703000837030008A7
:100150003703000837030008370300083703000897
:100160003703000837030008370300083703000887
:100170003703000837030008370300083703000877
:10018000370300083703000800F002F800F0B6F863
:100190000AA090E8000C82448344AAF10107DA45E2
:1001A00001D100F0ABF8AFF2090EBAE80F0013F07E
:1001B000010F18BFFB1A43F00103184798730000A2
:1001C000B87300000A444FF0000C10F8013B13F024
:1001D000070408BF10F8014B1D1108BF10F8015BA0
:1001E000641E05D010F8016B641E01F8016BF9D193
:1001F00013F0080F1EBF10F8014BAD1C0C1B09D1EA
:100200006D1E58BF01F801CBFAD505E014F8016B5B
:1002100001F8016B6D1EF9D59142D6D370470000ED
:100220000023002400250026103A28BF78C1FBD8FF
:10023000520728BF30C148BF0B6070476E2900F0DD
:100240007884702900F0ED81662907F0D480652953
:1002500007F0D180672907F0CE806129AFF30080D5
:1002600003681B0A28BF41F08001692900F05E8104
:10027000642900F05B81752900F058816F2900F036
:100280007185782900F0B981E92900F00B85E4290E
:1002900000F00885F52900F00585EF2900F06E854E
:1002A000F82900F0B8810368DB0928BF41F080011C
:1002B000632900F07A84732900F07F84E32901F038
:1002C0005380F32901F05880002070471FB507F0D4
:1002D0008DF89DE8030000F08BFB01F0F1F80400BD
:1002E0000020002107F056F8401C6060002000212B
:1002F00007F066F8E0601FBD10B510BD01F0BBF857
:100300001146FFF7E3FF07F00FF801F099F903B486
:10031000FFF7F2FF03BC06F0F4FF00000948804736
:1003200009480047FEE7FEE7FEE7FEE7FEE7FEE7D7
:10033000FEE7FEE7FEE7FEE704480549054A064BEF
:10034000704700007564000889010008E842002039
:10035000E8480020E8440020E844002072B67047D6
:1003600062B67047EFF3108072B6704780F3108862
:10037000704730BF704720BF7047B0FA80F07047B9
:1003800090FAA0F0B0FA80F0704790FAA0F07047B1
:1003900070B5064600F00CFB056806F10B0020F076
:1003A0000704B4429CBF002070BD2B466A68BAB1F6
:1003B0001068A04210D304F1080188423CBF506885
:1003C000586007D35168101941601168091B01601A
:1003D00058601460101D70BD13465268002AE7D1A2
:1003E0002146284600F0F0FA0028DED170BD70B535
:1003F0000446051F00F0DCFA0068002C14BF4468B6
:1004000070BD002C18BFAC423CBF20466468F8D3D6
:1004100001680A18AA4218BF456003D12A68054638
:100420001144016028684119A1421CBF6C6070BD75
:100430006168696021680844286070BD0A46014906
:1004400000F0C0BB340400200FB4044910B503AA67
:10045000029800F0B7FB10BC5DF814FB34040020D8
:100460000FB41CB5084B06AA7B446946009005985A
:1004700000F079FB04460020694600F087FB204627
:100480001CBC5DF814FB00002107000070B5044699
:1004900085690068C10601D5302600E02026C00726
:1004A00007D070BDD4E9012130469047206A401C36
:1004B00020626D1EF6D570BD70B504468569007862
:1004C000C00707D170BDD4E9012120209047206AE0
:1004D000401C20626D1EF6D570BD70B50C460546F9
:1004E000012A05D02878800600D5EA69002302E0B9
:1004F000012305E05B1C934202D2E05C0028F9D1A5
:10050000A869E618C01AA861286A18442862284613
:10051000FFF7BCFF04E0D5E9012114F8010B904777
:10052000B442F8D32846FFF7C7FF70BD2DE9F0416C
:100530000646002410687529314616A510D000F033
:100540008DFA002802DA404213A507E031688A07D5
:1005500001D512A502E0490704D511A5012401E047
:1005600000F085FA00210A2206F1240709E0B0FB19
:10057000F2FCB0FBF2F302FB1C003030785418465A
:10058000491C0028F3D123462A463046BDE8F041F5
:1005900000F076BA000000002D0000002B000000E3
:1005A00020000000F0B40D460188090502D5214C59
:1005B0007C4402E01F4C7C440E34002100F12406F0
:1005C00008E002F00F071209E75D42EA03721B0917
:1005D0007754491C52EA0307F3D10278002312072B
:1005E00004D5702D06D009B1022311342246F0BC87
:1005F00000F046BA01231034F8E770B504460D4602
:100600002146106800F033FA024629462046BDE82C
:1006100070400023C6E7D21D22F00703D3E9002370
:10062000C0E70368126843F0200303600823C36136
:100630000023B7E7C86E00002DE9F05F8946044645
:100640004FF0000ADFF874B1FB44C0F820A0204648
:10065000E1688847002874D0252806D0D4E9012114
:100660009047206A401C2062F1E700265F46204642
:10067000E16888472028054607DB312D05D2781927
:1006800010F8200C08B10643F1E7B00701D526F0B9
:100690000406C4F81CA00027C4F818A02A2D09D00D
:1006A000284606F027FE38B304EB8708303DC8F82B
:1006B000185019E059F8041B204604EB8702916199
:1006C000E1688847012F054618D1E069002820DA43
:1006D00026F020061DE0D8F8180000EB800005EB9E
:1006E00040003038C8F818002046E16888470546C1
:1006F00006F000FE0028EED1012F0AD02E2D08D1E1
:100700002046E16888477F1C0546022F46F02006F8
:10071000C4DBA069002803DA404246F00106A0616C
:10072000F00701D026F010066C2D0BD0682D09D0F3
:100730004C2D39D06A2D35D0742D35D07A2D33D04B
:1007400016E038E0E1682F4620468847B842054663
:1007500009D16C2F26D04FF48060E1680643204613
:100760008847054604E06C2F1AD04FF4807006438A
:100770000DB3A5F14100192802D8203546F40066D2
:100780004A462946204626604E46FFF757FD80B16F
:1007900001280BD0F61D26F0070000F1080956E7E6
:1007A0004020E4E78020D8E70020D6E706F10409DE
:1007B0004DE7284652E7206ABDE8F09F586E0000DA
:1007C00070B5064600F0F8F80468054630460A227F
:1007D000002100F0DDFA2C6070BD401ECAB210F896
:1007E000011F8A4202D00029F9D10020704710B5BC
:1007F000431E13F8014F002CFBD105E011F8014B0B
:10080000002C03F8014B03D0521EF7D200211970BF
:1008100010BD30B505460B462A4613F8014B12F8B9
:10082000010B08B1A042F8D01CB1002802D06D1C09
:10083000F1E7284630BD10B5431C02E010F8011B5B
:1008400071B18107FAD14FF0013202C88C1A8C4382
:1008500014EAC211F9D0C01A0A0603D0C01E10BD96
:10086000C01A10BD0A0401D0801E10BD0902FCD0C0
:10087000401E10BD421E12F8013F002BFBD111F8A3
:10088000013B002B02F8013BF9D17047032A40F2EB
:10089000308010F0030C00F0158011F8013BBCF122
:1008A000020F624498BF11F801CB00F8013B38BF3A
:1008B00011F8013BA2F1040298BF00F801CB38BF48
:1008C00000F8013B11F0030300F09A82083AC0F0EF
:1008D000088051F8043B083A51F804CBA0E808100E
:1008E000F5E7121D5CBF51F8043B40F8043BAFF341
:1008F0000080D20724BF11F8013B11F801CB48BF9B
:1009000011F8012B24BF00F8013B00F801CB48BFD0
:1009100000F8012B70474FF000020429C0F012804C
:1009200010F0030C00F01B80CCF1040CBCF1020FA2
:1009300018BF00F8012BA8BF20F8022BA1EB0C0177
:1009400000F00DB85FEAC17C24BF00F8012B00F86D
:10095000012B48BF00F8012B70474FF0000200B593
:10096000134694469646203922BFA0E80C50A0E8D2
:100970000C50B1F12001BFF4F7AF090728BFA0E880
:100980000C5048BF0CC05DF804EB890028BF40F84C
:10099000042B08BF704748BF20F8022B11F0804F8E
:1009A00018BF00F8012B7047704770477047000070
:1009B000004870478C420020004870478442002065
:1009C000704770477047704738B504460A460020A4
:1009D0006946AFF30080002808BF38BD0246009981
:1009E000204600F04BFA012038BD012000F03BBD4D
:1009F000F8B5AFF30080054600200C46102000BF7C
:100A00000646A819A0420DD9324669460020AFF328
:100A10000080070008BF00F026FD0098A04218BF24
:100A20000546C419FFF7C4FF05600746F01D20F016
:100A300007004619284600F00AF8B44208BFF8BD7E
:100A4000A21B31463868BDE8F84000F017BA002113
:100A50000160C0E9011070471020704709684A051D
:100A600001D540B27047C905FCD500B2704709688E
:100A70004A0501D5C0B27047C905FCD580B27047A0
:100A80002DE9F0470D4699469246044600F12408A8
:100A90000168880604D5E06921F01001216000E0BA
:100AA0000120A84201DD471B00E00027A1697A1957
:100AB00002EB0900081AA0612078C00602D4204683
:100AC000FFF7E4FC002608E0D4E901211AF806004B
:100AD0009047206A401C761C20624E45F4DB20784B
:100AE000C0060AD52046FFF7D1FC06E0D4E9012173
:100AF00030209047206A401C2062381EA7F1010771
:100B0000F4DC07E0D4E9012118F805009047206AD9
:100B1000401C2062281EA5F10105F3DC2046FFF7EA
:100B2000CBFC2078000602D50220BDE8F08701202A
:100B3000FBE711680268006A530501D508700AE0F6
:100B4000D30501D5088006E0130603D5C217C1E915
:100B5000000200E0086001207047000001694A1CA3
:100B600002610878704700B58FB0CDE901310021EE
:100B7000059105497944CDE9031011466846FFF710
:100B80005BFD0FB000BD0000E5FFFFFF0A6802F843
:100B9000010B0A60704710B5436913B1AFF30080D1
:100BA00001E0FFF79AFC012010BD127800F124014A
:100BB0000A7000224A700122EDE711684FF0FF32FF
:100BC000E9E70000074B70B50D467B44FFF7CBFF0C
:100BD0000446284600F023FC10B14FF0FF3070BDF2
:100BE000204670BD376700002DE9FF5F15468A4635
:100BF0000446DFF8AC80F8440027D8E900103E46F0
:100C0000CDE9001010E03AF816106A4602A800F08C
:100C10000AFC411C07D02178890603D5E2693918FE
:100C200091420DD80744761C2078800602D5E069F1
:100C3000B84205DDAE42E6DB3AF816000028E2D104
:100C4000A069C01BA0612046FFF720FCD8E9001076
:100C5000CDE90010002017E03AF818106A4602A803
:100C600000F0E1FBB0F1FF3F81460BD000250DF114
:100C7000080B05E0D4E901211BF8050090476D1C25
:100C80004D45F7D308F10100B0428046E4DB206A0D
:100C9000384420622046FFF70FFCBDE8FF9F0000AC
:100CA000BE6800002DE9F0418046D21D22F0070207
:100CB0000025D2E90002F52915A614D0011E72F113
:100CC000000106DA0023D0EB030063EB020211A659
:100CD00008E0D8F800108B0701D50FA602E04907FD
:100CE00001D50EA601251146002408F1240704E0D1
:100CF00000F0DEF830323A55641C50EA0102F7D1B8
:100D00002B46324621464046BDE8F041FFF7B8BECB
:100D1000000000002D0000002B000000200000005B
:100D200030B4002100F1240408E002F00705D208E5
:100D3000303542EA4372DB086554491C52EA030528
:100D4000F3D10468002310A2250708D504F020047D
:100D50000C4304D0C46901230CA2641EC46130BCDE
:100D6000FFF78EBE10B5044621461068FFF77FFEE0
:100D700002462046BDE810400023D1E7D21D22F0F4
:100D80000701D1E90023CBE700000000300000009C
:100D90002DE9F04791460F4680460446002614F898
:100DA000015B2DB100F062F80068405DC007F6D12C
:100DB0002B2D02D02D2D18D0641E4A4639462046D0
:100DC00000F0DEFA27B13968A14201D1C7F80080EE
:100DD0004FF0020471050BD54042002803DDFFF7F8
:100DE000EBFD0460A007BDE8F08746F48066E4E709
:100DF0000028F8DAFFF7E0FD04606FF00040F2E74A
:100E000010B5203AC0F00B80B1E81850203AA0E8A5
:100E10001850B1E81850A0E81850BFF4F5AF5FEAD9
:100E2000027C24BFB1E81850A0E8185044BF18C98C
:100E300018C0BDE810405FEA827C24BF51F8043B33
:100E400040F8043B08BF7047D20728BF31F8023B87
:100E500048BF11F8012B28BF20F8023B48BF00F81B
:100E6000012B7047004870478442002010B500F005
:100E700027FB001D10BD00BF1D6500000346406834
:100E80008C46002818BF88423CBF03464068F8D310
:100E900018681844884207D00CF1030020F00700BE
:100EA000001D411A521A0146081D0A60FFF79FBA39
:100EB00030B5B0F10A024FEA900E71F100034EEA2C
:100EC000817EB0EB0E0061EB91014FEA101E4EEAFD
:100ED000017E10EB0E0041EB11114FEA102E4EEA8D
:100EE000016E10EB0E0041EB11214FEA104E4EEA5D
:100EF000014E10EB0E0041EB1141401841F1000191
:100F00004FEAD00040EA41704FEAD10110EB800572
:100F10004FEA810444EA907444EB01046D1944EBF8
:100F20000404521BA3414FF0000348BF0A3200D50E
:100F300030BD401C41F1000130BD70472DE9FF4F2D
:100F40000C461E464FF0FF378BB0D2E90001DDF8AA
:100F500060800A908A46C1F30A5505B93D460021D2
:100F600008464FF00000BAF1000F00F4400005DA27
:100F700000EB80004FF4400101EA50004FEA905925
:100F8000B9F1010F00DDB9460A9850EA4A000ED0C7
:100F900044F61050A5F2FF3545432F14B8F1000F69
:100FA0001ED07542291E1EDDC9F100021CE0B8F1F9
:100FB000010F4FF0000001D0302103E0F24305E0C3
:100FC0002154401CB042FBDB30460022002121545A
:100FD0000B99C1F80880C1E900200FB0BDE8F08F7F
:100FE000BD1B6D1CDEE74A4600DA694206A800F028
:100FF000B9FA06AB93E8070003AB83E80700504655
:101000000A9900F0B2FB8DE80700A0F500501F38E8
:1010100000900398002D09DD42F21F014A46084462
:1010200003A90390684600F011FE08E0A0F5005007
:101030004A461F3803A90390684600F01BFE8DE85E
:1010400007000004000C03D04FF0FF30410800E01F
:101050001046B8F1000F03D00022009215461EE0A2
:10106000751E05D4FFF724FF303262556D1EF9D589
:10107000B3460122084302D000227F1C04E02078FE
:10108000302801D100227F1E002A099786D01DE05A
:10109000112D07DAFFF70CFF303262556D1C50EA54
:1010A0000102F5D1084302D00098C8B10EE000213A
:1010B000681E05E0235C625C63542254401E491C98
:1010C0008142F7DBAB46A81B401E0990002004F8C4
:1010D0000B000B98099AC0F80880C0E9002B7CE748
:1010E00011264FF0000859E72DE9F04F88460446D5
:1010F000D21D22F0070191B0D1E90001CDE90A012A
:1011000006F0E0F802460B98C00F01D02D2007E052
:101110002068810701D52B2002E0202101EAC000D0
:10112000032A099001D0072A05DB034641462046E1
:1011300000F0CAF90BE12078800601D5E06900E0F3
:101140000620B8F1650F814606D0B8F1660F18D0B9
:10115000B8F1670F70D131E00020B9F1110F0090A4
:1011600001DB112301E009F101030AAA01A90CA87E
:10117000FFF7E4FEDDE90C70002609F10105834666
:1011800047E001204B4600904FF000470AAA01A912
:101190000CA8FFF7D3FEDDE90DB00C995D460026E3
:1011A00010B909F101000D18B9EB050003D4C0F125
:1011B000FF3609F10105A5EB09002BE0B9F1010F9C
:1011C00001DA4FF001090020B9F1110F00904846F3
:1011D00001DD112300E003460AAA01A90CA8FFF7CC
:1011E000ADFEDDE90C704D460026834620780007F1
:1011F0000AD4AB4500DA5D4601A8012D04DD411992
:1012000011F8011C302907D04F4502DA17F1040FFD
:1012100004DA012082460FE06D1EEEE7002F02DCAB
:10122000ED1B3E4403E0781CA84200DD7D1CB81B8A
:1012300000F1010A4FF000472078000703D4AA45C7
:1012400001DB4FF0FF3A0021B7F1004F0DF14308E9
:101250008DF8431024D002202B23002F01DA7F4287
:101260002D230A21021EA0F1010000DC5FB197FBD3
:10127000F1FC97FBF1F201FB1C7C17460CF1300CE2
:1012800008F801CDEEE7A8F10100037021880905F7
:1012900001D5452100E06521A0F1010800F8011CFD
:1012A00009980FA9A1EB0807FF1D00B10120411902
:1012B00001EBEA70A1693844081A401EA061207849
:1012C000C00602D42046FFF7E1F8099828B1D4E916
:1012D00001219047206A401C20622078C00622D558
:1012E0002046FFF7D3F81EE0002E04DBB34502DDF5
:1012F00001A8805D00E03020D4E901219047206AF8
:10130000401C2062761CAAF101005FEA000A0AD1A3
:1013100000F0D6F8C0680168405CD4E9012190472C
:10132000206A401C2062281EA5F10105DCDC07E0D4
:10133000D4E9012118F8010B9047206A401C206273
:10134000381EA7F10107F3DC2046FFF7B5F80320AC
:1013500011B043E610B5436913B1AFF3008001E06B
:10136000FFF742FC012010BD128800F124018284A5
:101370000022C2840122EDE711684FF0FF32E9E755
:101380002DE9F05F824615468B4600270AF10104DD
:10139000B9460078302801D09DB113E014F8010B54
:1013A0000127782803D0582801D045B10AE00DB1B3
:1013B000102D07D1002714F8010B102502E0082595
:1013C00000E00A250026B0460EE005FB080005FBFC
:1013D00006F101271FFA80F801EB1046B6F5803FB1
:1013E00000D3B94614F8010B294600F0ADF80028E7
:1013F000EBDABBF1000F05D00FB1641E00E05446DC
:10140000CBF80040B9F1000F06D0FFF7D5FA022162
:101410000160C81EBDE8F09F48EA0640FAE7007B7D
:1014200000F08000704770B516460C460546FFF781
:101430001DFD036893F80101012806D0FF2C0FD889
:10144000185D68B101202C7070BDD3F807013246D9
:10145000214603F2071303442846BDE870401847AD
:101460004FF0FF3070BD10B500F0F6F8BDE8104049
:1014700000F0ECB870477546FFF7F4FCAE46050087
:101480006946534620F00700854618B020B5FEF7A0
:1014900053FFBDE820404FF000064FF000074FF02B
:1014A00000084FF0000B21F00701AC46ACE8C00982
:1014B000ACE8C009ACE8C009ACE8C0098D4670478B
:1014C00000487047A44200202DE9F0411F46044621
:1014D00003260168072A01F4006004DB08B116A5A1
:1014E00005E016A503E008B115A500E015A521F05B
:1014F00010002060A069C01EA0610FB1401EA06155
:101500002046FEF7C3FF4FB1D4E90121384690478A
:10151000206A401C2062C01C206206E0206AFAE7B4
:10152000D4E9012115F8010B9047761EF8D2204628
:10153000FEF7C2FFBDE8F0814E414E006E616E00C5
:10154000494E4600696E66003A2800D2303820F0D5
:101550002002412A01D3A2F13700884201D34FF083
:10156000FF3070472DE9F047814616468AB0334870
:1015700078440DC88DE80D0030487844801C03ACD9
:101580000DC884E80D0041F69B300844372190FBDC
:10159000F1F290FBF1F5A5F1800501FB12041B3C73
:1015A00002D56442012000E00020DFF890A08046D0
:1015B0000027FA44AAF1BE0A0DE0E00709D032463E
:1015C000684607EB47010AEB810100F053FB8DE809
:1015D000070064107F1C002CEFD1184F7F44AC3FF4
:1015E00018E0E80714D007EB04100DF1180A90E892
:1015F0000E008AE80E00C068F04201D198190890E8
:10160000324606A903A800F035FB03AB83E80700C8
:101610006D10641C002DE4D132466946B8F1000F0C
:1016200003A802D000F012FB01E000F023FBC9E99F
:101630000001C9F808200AB0BDE8F087C85F0000C3
:101640000446AFF300802046FEF761FE002801D07B
:1016500005F057BE7047000010B5012805D00021E5
:1016600003A000F021F8012010BD09A1F8E7000057
:1016700053494752544D454D3A204F7574206F667B
:101680002068656170206D656D6F727900000000E3
:101690003A2048656170206D656D6F727920636FC7
:1016A000727275707465640070B505460C460A2048
:1016B00000E06D1C00F052F835B128780028F8D110
:1016C00002E0641C00F04AF814B120780028F8D138
:1016D000BDE870400A2000F041B800004FF0013C26
:1016E00050F8042B51F8043B9A4221D1A2EB0C0391
:1016F000934313EACC1317D150F8042B51F8043B51
:101700009A4215D1A2EB0C03934313EACC130BD1ED
:1017100050F8042B51F8043B9A4209D1A2EB0C0378
:10172000934313EACC13DBD04FF00000704700BFA7
:10173000D01A01BAB1FA81F101F0180122FA01F0D0
:10174000CB40C1F12001DBB2C0B2C01A2CFA01F3C8
:10175000D11A914311EAC311E6D1704708B5694621
:101760008DF800000320ABBE08BD5FEA400C08BF47
:1017700091F0000F4FEA8C234FEAC12243EA515106
:101780004FEA1C5018BF00F5F0404FEA300018BF78
:1017900041F000415FEA6C5C00F02980BCF1FF3F42
:1017A00008BF40F080407047130C06BF12044FF092
:1017B000100C4FF0000C130E04BF12020CF1080CB9
:1017C000130F04BF12010CF1040C930F04BF92001D
:1017D0000CF1020CD30F04BF52000CF1010C1146A6
:1017E0004FF00002A0F11F00A0EB0C00704711F0B9
:1017F000004F08BF704731F000413FF4D5AF0B0CEC
:1018000006BF09044FF0100C4FF0000C0B0E04BF84
:1018100009020CF1080C0B0F04BF09010CF1040CB8
:101820008B0F04BF89000CF1020CCB0F04BF4900E1
:101830000CF1010CCCF12003A0EB0C0022FA03F315
:1018400002FA0CF241EA030100F10100704720F0B6
:101850007F4C80EA030023F07F47ACEB070303F5DE
:101860007C5300F0004003F1FF032DE980494FEA6B
:10187000154B09B44FEA144325EA0B4E24EA0348FA
:101880000FF2042606EB132749083E785FEA32027E
:1018900003FB0667C7F5000707FB06F64FEA543758
:1018A0004FEAD64606F1020607FB066CCCF1005C57
:1018B0004FEA1C472CEA074C07FB06F40CFB06F525
:1018C00004EB15464FEA961634BF00204FF0004057
:1018D0004FEAD13706FB07FC4FEA1C4C0CFB0BF719
:1018E000D21B03FB0CF761EB07010CFB0EF7B0EB0F
:1018F000074072EB17420CFB08F734BFA2EB07421C
:10190000B2EB074261EB17414FEA0C444FEA9107F3
:1019100006FB07FC4FEA1C4C0CFB0BF7B0EBC74077
:1019200072EB573203FB0CF734BFA2EBC742B2EBAA
:10193000C74261EB57310CFB0EF7B0EBC70072EBFF
:1019400057720CFB08F734BFA2EBC702B2EBC70219
:1019500061EB5771039F4FEA816141EA921104EBF9
:10196000CC044FEAD1374FEA826206FB07FC42EA19
:1019700090124FEA80604FEA1C4C0CFB0BF7D21B15
:1019800003FB0CF761EB07010CFB0EF7B0EB074014
:1019900072EB17420CFB08F734BFA2EB0742B2EB25
:1019A000074261EB17414FEA8C554FEA910704EB70
:1019B0009C2406FB07FC4FEA1C4C0CFB0BF7B0EB1E
:1019C000C74072EB573203FB0CF734BFA2EBC742A0
:1019D000B2EBC74261EB57310CFB0EF7B0EBC7001F
:1019E00072EB57720CFB08F734BFA2EBC702B2EBE5
:1019F000C70261EB577115EB4C254FEA816141EA53
:101A000092114FEA82624FEAD13742EA901206FB06
:101A100007FC44F100044FEA80604FEA1C4C0CFBC9
:101A20000BF7D21B03FB0CF761EB07010CFB0EF766
:101A3000B0EB074072EB17420CFB08F734BFA2EB88
:101A40000742B2EB074261EB174115EB1C154FEA59
:101A5000813141EA92414FEA823242EA90424FEAB2
:101A600080304FEA0C7644F1000448EA03434EEA22
:101A70000B484FF0000EB2EB080C71EB030724BFCC
:101A8000624639464EEB0E0E4FF0000B00185241E5
:101A900049414BEB0B0BB2EB080C71EB03077BF1ED
:101AA000000B24BF624639464EEB0E0E4FF0000B82
:101AB0000018524149414BEB0B0BB2EB080C71EB98
:101AC00003077BF1000B24BF624639464EEB0E0E36
:101AD00051EA020718BF46F0010616EB0E7655F1E3
:101AE000000254F1000103D5BDE88901BDE800887A
:101AF000BDE88901BDE80048B619524141EB01013A
:101B0000A3F10103704780807F7E7D7C7B7A7978AA
:101B1000777676757473727171706F6E6E6D6C6CB2
:101B20006B6A6A6968686766666564646363626154
:101B30006160605F5F5E5E5D5D5C5C5B5B5A5A59D5
:101B40005958585757565655555554545353525241
:101B50005251515050504F4F4F4E4E4D4D4D4C4C99
:101B60004C4B4B4B4A4A4A494949484848474747E2
:101B7000474646464545454444444443434343421F
:101B8000424242414141002B26D4770021D01CB56E
:101B90004FEA370703B44FF010004FF010014FF039
:101BA00000000FBCBDE810400BF1010BBBF1010FB1
:101BB00008BF5FEA170722BF12F1010211F101010C
:101BC0004FF0004143F1000300F0004043EA000001
:101BD0007047F9D35708DAE746EA064613F1400F93
:101BE0004FEA16461FDD13F1200FDFBF16430A46EA
:101BF000002120335B42C8D0C3F1200746EA0646E5
:101C000002FA07F74FEA164646EA0706C3F120072D
:101C100022FA03F201FA07F721FA03F14FF0000369
:101C200042EA0702B1E746EA020646EA06464FEAFA
:101C3000164646EA0106BCBF46EA0646360C4FF099
:101C400000034FF000024FF000019EE72DE9C0486D
:101C5000934630B491E8380007C831EA400C48BFD9
:101C600034EA430C03D5FFF7F2FDFFF78CFFF0BC1D
:101C7000BDE800882DE9C048934630B491E83800AB
:101C800007C810F0804F08BF13F0804F03D100F059
:101C900005F8FFF778FFF0BCBDE8008820F07F472B
:101CA00080EA030023F07F4C07EB0C03A3F57C5381
:101CB00000F00040A3F1FE0392F0000F00F0B380AB
:101CC00095F0000F00F077802DE901494FEA1140AF
:101CD0004FEA144621EA004800FB06FC24EA0647C6
:101CE00008FB06F607FB08F800FB07F718EB0648A9
:101CF0004CEB164C4FEA124B18EB07484FEA1546CF
:101D00004CEB174022EA0B4E0BFB06FC25EA06477C
:101D10000EFB06F607FB0EFE0BFB07F71EEB064E4F
:101D20004CEB164C4FF000061EEB074E4CEB174BDE
:101D300018EB0B0840F1000018EB0E0B58EB0008F5
:101D400040F100008F1A4FF000013CBFC943661BF1
:101D500014BFB5EB040C00213CBFC943F61B4FEA8E
:101D600017444EEA8E0E27EA04454FEA1C4704FB4F
:101D700007622CEA074C05FB07F70CFB05F604FB92
:101D80000CFC16EB074642EB174216EB0C4642EBF7
:101D90001C421BEB060658EB0202414146EA9E0636
:101DA00001D5BDE80189B619524141EB0101A3F10A
:101DB0000103BDE801894FEA14454FEA114724EABF
:101DC000054621EA074C05FB07F406FB07F70CFB69
:101DD00006F105FB0CFC11EB074144EB17444FEAFD
:101DE000124711EB0C4144EB1C4422EA074C05FB63
:101DF00007F206FB07F70CFB06F605FB0CFC16EBDF
:101E0000074642EB174216EB0C4642EB1C456A189C
:101E100054F1000148BF7047B619524141EB01012E
:101E2000A3F10103704795F0000F37D04FEA11423C
:101E30004FEA144721EA024624EA074C02FB07F165
:101E400006FB07F70CFB06F402FB0CFC14EB074443
:101E500041EB17414FEA154714EB0C4441EB1C4191
:101E600025EA074C02FB07F506FB07F70CFB06F615
:101E700002FB0CFC16EB074645EB174516EB0C4630
:101E800045EB1C42121951F1000148BF7047B619C9
:101E9000524141EB0101A3F1010370474FEA1445A0
:101EA0004FEA114724EA054621EA074C05FB07F1F2
:101EB00006FB07F70CFB06F24FF0000605FB0CFCD7
:101EC00012EB074241EB174112EB0C4251EB1C4164
:101ED00048BF7047921841EB0101A3F1010370471D
:101EE00022484FF6FF710170002080F309882048D6
:101EF000016881F308881F484FF08051016062B685
:101F0000FEE71C484FF080510160704719484FF0C0
:101F100080510160704772B6EFF3098050B11EF036
:101F2000100F08BF20ED108A203880E8F00F12490A
:101F30000968086000B5114880475DF804EB104857
:101F400010490A7802700C480F490A68026010684C
:101F500090E8F00F20301EF0100F08BFB0EC108A90
:101F600080F309884EF0040E62B6704722ED00E05F
:101F70006C08002004ED00E0640800200542000821
:101F8000120800201308002068080020014840685B
:101F900070470000001000E00FB41CB501A800233A
:101FA000009005AC1A461946074801F063FA21462D
:101FB0000498FEF743FA01AA0021034801F042FB0E
:101FC0001CBC5DF814FB00007C09002038B50446F9
:101FD0000D48007888B10D48007870B90C4D6888BC
:101FE000844205D3B4FBF0F06A46082102F036F9CA
:101FF0006888B4FBF0F100FB11444FF47A70604341
:1020000000F008F838BD0000E5070020E4070020D4
:1020100024040020F8B54FF0E02700247E690D4924
:10202000098800FB01F5684601F09AFCB969B869B6
:102030008842FCD002D2A1EB000102E0A6EB000234
:1020400011440C440146AC42F1D3684601F0B2FCA5
:10205000F8BD0000240400201CB50121102004F06C
:1020600097F801248DF8044000208DF80600032124
:102070008DF805108DF8070000946946034800F0BC
:10208000BFF90348C0F880421CBD000000100240A8
:10209000000042422DE9F04700261A4F80460725EE
:1020A0004FF00109002409E00A20FFF7B3FF641C88
:1020B0000A2C03D36FF00300BDE8F087D7F80002C5
:1020C0000028F1D02820FFF7A5FFD7F8000290B133
:1020D00009FA05F03043C6B2002408E00A20FFF7F1
:1020E00099FF641C0A2C02D36FF00400E4E7D7F8D0
:1020F00000020028F2D16D1ED4D588F800600020BF
:10210000DAE700000000424270B50546002400F006
:102110001DF8002817DB2819FFF7BCFF002812DB89
:10212000641C052CF7DB3220FFF774FF28786978F0
:10213000EA780844A978114408442979C0B2814258
:1021400002D06FF0060070BD002070BD2DE9FC4785
:10215000012700248DF804708DF806404FF0030825
:10216000DFF8B0908DF80580009726468DF807407F
:102170006946484600F044F9274DC5F8807226208C
:1021800005F52075FFF746FF2E601420FFF71EFFB0
:102190002F602620A5F52075FFF73CFF8DF8046021
:1021A0008DF806608DF8058000978DF80760694608
:1021B000484600F025F909E00A20FFF72BFF641CD0
:1021C000642C03D36FF00B00BDE8FC87D5F8000248
:1021D0000028F1D1002408E00A20FFF71BFF641C4F
:1021E0000A2C02D36FF00100EEE7D5F800020028B8
:1021F000F2D0002408E00A20FFF70CFF641C0A2C30
:1022000002D36FF00200DFE7D5F800020028F2D118
:10221000DAE700000010024000004242802101483D
:10222000FEF779BB5629002010B5044612E004F0F1
:102230007DF801280BD10AA10B48FEF7EAFA30B16C
:102240003A21FEF7CAFA002800D0401C10BD0A202F
:10225000FFF7BCFE2046641EA4B2E8D210BD000009
:102260004950442C00000000562900207CB5012173
:10227000082003F08DFF012404208DF80440002580
:1022800000908DF8065003208DF805008DF807406A
:102290006946154800F0B4F8144EC6F888524FF459
:1022A000FA75284606F52276FFF790FE3460284638
:1022B000FFF78CFEFFF7B2FF4FF4C87402E0284628
:1022C000FFF784FE22460AA10AA000F017F80028B2
:1022D000F5D104F0D1FE02E02846FFF777FE03F0C7
:1022E00045FD0028F8D17CBD000C02400080414231
:1022F0004F4B000041540D0A0000000070B5144619
:102300000D460646FEF797FA81B2304604F0A4FD6A
:1023100010E0FFF75BFE04F009F801280AD101F094
:1023200027F829460648FEF774FA18B1FFF776FF3A
:10233000002070BD641EA4B24FF00100E9D270BD50
:102340005629002030B589B00C460546FFF766FFD8
:10235000224608A16846FEF783F8C82209A168460C
:10236000FFF7CCFF002803D12146284604F074FD76
:1023700009B030BD41542B43495053454E443D258F
:10238000640D0A003E00000008B500F0E1FF0820DF
:1023900000F02CF828B16B4600220121044800F01F
:1023A000D3FE082000F01CF800F0E2FF08BD00009A
:1023B0007408002008B500F0CBFF102000F016F8DC
:1023C00028B16B4600220221044800F0BDFE102017
:1023D00000F006F800F0CCFF08BD000074080020F3
:1023E0000149086070470000143C0140034A01465F
:1023F000002012680A4200D001207047143C0140BE
:10240000F0B5002201274FF0030C0B6807FA02F524
:102410002B40AB422CD1066853000CFA03F4A643C0
:1024200006600E79D0F800E09E4046EA0E0606608F
:102430000E79012E01D0022E12D18668A643866045
:102440004E79D0F808E09E4046EA0E06866046685F
:10245000AE43466045688E799640B6B235434560D6
:10246000C568A543C560CC799C40C3681C43C46063
:10247000521C102AC9D3F0BD4B07DB0E9A40C90885
:1024800010B500EB8100016A0F249C40A14301625A
:10249000016A1143016210BD418370470183704797
:1024A00001480078704700003004002070B501201A
:1024B00003F030FF0D4D4FF4806421462846FFF7AE
:1024C000EDFF660031462846FFF7E8FF0120FFF7E1
:1024D000A1FD31462846FFF7DFFF0120FFF79AFDF7
:1024E00021462846BDE87040FFF7D6BF00040240F1
:1024F00070B50B4C4FF480612046FFF7CFFFE51419
:1025000029462046FFF7C8FF0120FFF783FD294633
:102510002046FFF7C3FFBDE870400120FFF77ABDFA
:102520000004024070B5002003F0F4FE0120FFF724
:1025300071FD0C4E4FF4806529463046FFF7AEFF23
:102540000948D0F82C02012802D10124FFF7D0FF5E
:1025500029463046FFF7A0FF0120FFF75BFD20462C
:1025600070BD000000040240008040421CB5012103
:10257000084603F00DFEC020012400908DF80440B1
:1025800000208DF8060003208DF805008DF8074027
:1025900069460448FFF734FF0348C0F89842C0F882
:1025A0009C421CBD000002400000404210B50446A1
:1025B000007B012802D12068FDF719FF0020206070
:1025C0006060A060207310BD0246012002F07F030E
:1025D0000B70D20908D043F08003401C01F8013B86
:1025E0000428F3DD4FF0FF3070472DE9F041044639
:1025F000002500680F462E4610B10220207315E01A
:10260000012020730846FDF7C3FE2060002808D093
:10261000C4E9016702E0206846556D1CA068A84225
:10262000F9D8BDE8F081206846556D1CA068A84225
:10263000F9D866608842F4D22660F2E72DE9FF47B8
:10264000174688468146FEF7F6F884B24046FEF704
:10265000F2F80026A01DFDF79BFE050025D0A11D68
:10266000FEF759F912A02246016829608088A880E7
:1026700049462846FEF7BBF84046FEF7DCF803461D
:1026800000200DF1040A012100908AE883004246EF
:1026900029460A2000F042F900B101262846FDF73C
:1026A000A6FE304604B0BDE8F0870120FAE700003E
:1026B00024637273702F00002DE9FF5F9A469346E2
:1026C00000251046DDF844900E9F139CFEF7B3F8EA
:1026D00006B2BBF1000F1FD006F111001FFA80F8FF
:1026E00007B10225109868B145F00405FEF7A3F87C
:1026F000C7B24846FEF79FF8C11901EB0800001D5C
:102700001FFA80F80F9870B1012807D0022808D06E
:10271000022004B0BDE8F09F0120FAE745F00C0567
:1027200001E045F01405129808B145F02405009821
:1027300060B3019850B345F0C0050098FEF77BF8F0
:1027400007460198FEF777F8391801EB0800001DDD
:1027500087B239462046FFF748FF2068C0B13946A6
:10276000FEF7D9F8D4E90030411C102261601A54F8
:10277000D4E900010144781FFFF726FF00B20028CA
:1027800008DA2046FFF712FF0520C2E70320C0E762
:102790000420BEE7616823680844411C6160002290
:1027A0001A54D4E90030421C042162601954D4E95F
:1027B0000070421C4D2362603B54D4E90070421CFF
:1027C000626051233B54D4E90030471C54226760B7
:1027D0001A54D4E90070431C63603A54D4E90030C1
:1027E000421C62601954D4E90020411C61601554F8
:1027F000D4E90030411C4FEA1A2261601A54D4E92E
:102800000030421C626003F800A0D4E90030411C93
:10281000320A61601A54D4E90020411C61601654E8
:10282000D4E90001084432465946FDF7E0FF6068EC
:1028300030446060680736D5B9F1000F01D10FF25E
:10284000D8091098FDF7F7FF86B2D4E90030411C93
:10285000320A61601A54D4E90020411C61601654A8
:10286000D4E90001084432461099FDF7C0FF6068C2
:10287000304460604846FDF7DEFF86B2D4E90030A0
:10288000411C320A61601A54D4E90020411C616085
:102890001654D4E90001084432464946FDF7A7FF23
:1028A000606830446060280618D50098FDF7C3FFC3
:1028B00086B2D4E90030411C320A61601A54D4E96E
:1028C0000020411C61601654D4E9000108443246DE
:1028D0000099FDF78CFF606830446060680618D589
:1028E0000198FDF7A8FF85B2D4E90030411C2A0AFF
:1028F00061601A54D4E90020411C61601554D4E988
:10290000000108442A460199FDF771FF60682844D8
:1029100060600020FDE60000000000002DE9FF4F90
:1029200081B04FF000059046119C0F999A465FEADE
:10293000000BA9462A4608D1012005B0BDE8F08F5A
:10294000232816D02B2814D06D1C0298405D002837
:10295000F6D142F0300709B147F0010705EB0A064E
:102960000E98B61C68B1012805D0022806D00320B5
:10297000E3E70220E1E747F0020701E047F0040740
:10298000B61C98F8000002281AD0F11C2046FFF768
:102990002CFE206848B3F11CFDF7BDFFD4E90020F0
:1029A000411C61601754D4E9000101443046FFF72F
:1029B0000BFE00281BDA2046FFF7F8FD0520BCE7D8
:1029C000002018F80010401C7D29FAD100F10409FC
:1029D000AAEB0900311A00912046C91CFFF705FE39
:1029E000206810B10099C91CD6E70420A5E76168EA
:1029F00023680844411C2A0A61601A54D4E9002063
:102A0000411C61601554D4E9000108442A4602992A
:102A1000FDF7EDFE6068284460600E9959B12368A7
:102A2000411C4FEA1B2261601A54D4E90030421C59
:102A3000626003F800B0B8F1000F0ED098F8000003
:102A40000228D4E90001084409D052464146FDF766
:102A50001DFF616801EB0A00606000206DE74A46D7
:102A60004146FDF713FF616801EB0900F4E7000040
:102A70007FB50D460120089C0021CDE90204CDE977
:102A800000011E460A46EB1C0CA10A20FFF746FF78
:102A900010B1012004B070BDD4E90020411C616078
:102AA0001654D4E90030411C2A0A61601A54D4E952
:102AB0000020411C616015540020EBE72464700085
:102AC000F0B50446002001235D05106012E0275C8C
:102AD000166807F07F0707FB03661660265C36065C
:102AE00001D4401CF0BDDB01AB4202D36FF001000A
:102AF000F0BD401C8842EADB4FF0FF30F0BD2DE90D
:102B0000F8430D4607461C4690462F21801DFDF7D1
:102B100064FE0021009150B3461C6A460421781CD3
:102B2000FFF7CEFF2520FDF733FC286008B32521F1
:102B3000FDF7F1FE242231462868FDF7A7FE009834
:102B400024362C3880B22080401CFDF721FCC8F8C8
:102B5000000080B12188491CFDF7DDFE2288314646
:102B6000D8F80000FDF792FE0020BDE8F8830120B0
:102B7000FBE70220F9E72868FDF739FC0320F4E7BA
:102B80004178022901D001207047817819B10129CB
:102B900001D0FF207047C07870474178022904D1E6
:102BA000817811B9C0780A2801D00120704700202F
:102BB0007047000038B504460078FF210009421E26
:102BC0000E2A01D3084638BD0328FCD1002000900E
:102BD0006A460421601CFFF773FF20440099401CE3
:102BE000022907D32278D20704D1028852BA921C54
:102BF0008A4201D9FF2038BD04A1801CFDF709FEDF
:102C000008B10F2038BD032038BD00002463726571
:102C10007100000030B50F23C27801780125FAB1A8
:102C2000144A126801F1E02102F4E062C2F5E062A8
:102C3000C2F30722C2F10404D3404278A240847850
:102C40001C401443220181F80024007800F01F0189
:102C50008D404009800000F1E020C0F8005130BDF7
:102C600001F01F0085404809800000F1E020C0F815
:102C7000805130BD0CED00E0024908430249086074
:102C8000704700000000FA050CED00E070B500256B
:102C900005F1B000C0B2002100F0FCF800210846A8
:102CA00000F0F8F80021102000F0F4F800240121D1
:102CB000002000F0EFF8641CE4B2802CF7D36D1C08
:102CC000EDB2082DE4D370BD2DE9F0471F469046C4
:102CD0000E4682460025DDF8209011E03146504630
:102CE00000F09CF8544607E019F8050001216D1C1E
:102CF00000F0D0F8641CE4B24445F5D3761CF6B27B
:102D0000BE42EBD3BDE8F0871CB50121022003F0E1
:102D100057FA4FF44060009001208DF80400002025
:102D20008DF8060003218DF805108DF8070069461F
:102D30003948FFF765FBC820FFF748F90021AE20AE
:102D400000F0A8F80021084600F0A4F800211020A7
:102D500000F0A0F80021402000F09CF80021B020F5
:102D600000F098F80021812000F094F80021FF2065
:102D700000F090F80021A12000F08CF80021A6209E
:102D800000F088F80021A82000F084F800213F20FE
:102D900000F080F80021C82000F07CF80021D3204A
:102DA00000F078F80021084600F074F80021D520E2
:102DB00000F070F80021802000F06CF80021D8208D
:102DC00000F068F80021052000F064F80021D92007
:102DD00000F060F80021F12000F05CF80021DA201A
:102DE00000F058F80021122000F054F80021DB20F8
:102DF00000F050F80021302000F04CF800218D2028
:102E000000F048F80021142000F044F80021AF2021
:102E100000F040F81CBD00000004024010B504465C
:102E2000B031C8B2002100F035F8102040EA14108B
:102E3000002100F02FF804F00F00BDE81040002141
:102E400000F028B82DE9F04115460E460746FFF779
:102E5000E5FF0F48002400EB85150121285D00F0F7
:102E600019F8641CE4B2102CF7D3761CF1B2384682
:102E7000FFF7D4FF00242819012190F8200000F06A
:102E800009F8641CE4B2102CF5D3BDE8F081000011
:102E90003804002009B104F0FEB904F0E5B9704728
:102EA0002DE9F0410446184890460F4600781D462B
:102EB00010B142F6E16025E014B3FDF753FA134E6A
:102EC0003178491C3170FDF751FA1148C4E9000707
:102ED0000027C4E9088704F1080001F0FEFE20463F
:102EE00001F0EAFA0B490888401C0880FDF73AFA1D
:102EF0003178491E3170FDF739FA2F80BDE8F08135
:102F000045F6C3501880F9E7E40700202C0800209C
:102F1000464C4147000800202DE9FF4F05468BB085
:102F20008548DDE9186400781F46894610B146F2ED
:102F3000AE10F2E0ADB148F20101781A8F4229D00B
:102F400019DC40F20111A7F201108F4222D00BDCF4
:102F5000012F1FD0022F1DD0042F1BD0082F16D1F8
:102F600018E045F6C350D8E0012813D0032811D04B
:102F700007280CD10EE0B0F5807F0BD0F4DDA0F572
:102F80008070013806D0022804D0062802D045F609
:102F90002560C2E069492868884202D045F6C450DD
:102FA000BBE0F80501D5012000E0002080464FF08D
:102FB000000B0EB1C6F800B007F00F010991FDF744
:102FC000D1F909995E4A4FF0010E012934D0022946
:102FD00038D0042902D008297ED123E0296A01EAE9
:102FE000090ACA4524D011E021EA0A0135E0554A10
:102FF0001268C2F884A00EB1696A3160FDF7B6F9B3
:10300000A4F800B050460FB0BDE8F08F390426D5C3
:10301000FDF7ACF946F2B0107FE0FDF7A7F946F6F0
:1030200063507AE0296A01EA09035FEA030AEDD0F6
:10303000B8F1000FDBD0D7E7296A29EA010ACA45AF
:1030400006D0E3E7296A29EA01035FEA030ADDD033
:10305000B8F1000FCBD041EA0A012962C7E7117825
:103060000029DAD1924682F800E0FDF77FF90D9849
:1030700000903B464A46294601A801F00DFAFDF7AB
:1030800071F99AF80010491E8AF80010FDF76EF9E0
:1030900000F02CFCFDF766F92A4B1A6892F83510FF
:1030A00051B1012922D0022930D0032926D0FDF7C1
:1030B0005DF946F62E6030E00EB1116C3160A4F877
:1030C00000B019685F46B8F1000FD1F884602DD0C8
:1030D0000999012927D000E005E0022923D004291D
:1030E0001ED008291CD0FDF741F950E70EB1116C34
:1030F0003160FDF73BF946F2A9100EE00EB1C6F8BB
:1031000000B0FDF733F947F2D92006E00EB1116C9B
:103110003160FDF72BF945F6C2502080002072E7A0
:10312000296AB14301E0296A31432962FDF71EF99A
:103130002780304667E70000E4070020464C4147FF
:103140002C080020640800202DE9FF411546884620
:1031500006001C460DD07DB1012D0DD0B5F5004FF8
:103160000AD06FF40040C54206D045F625601880AD
:1031700019E045F6C350FAE7104F3068B84202D064
:1031800045F6C450F3E7FEF701FF03460C4800780C
:1031900068B1CDE90234CDE9008500231A463146F5
:1031A000384601F0A3FA002004B0BDE8F0812A46B9
:1031B00041463046009401F09DF9F5E7464C414701
:1031C000E407002002480068002800D0004770474C
:1031D000D007002010B5044600F0A8F83E480022B1
:1031E000484902703D4802703D4802703D48026007
:1031F0003D4802603D4802703D4802703D48027003
:103200003D4802603D4802603D480260086830B1B8
:103210003D48006818B1096804C0491EFCD13B480C
:1032200002603B4802603B4802603B4802603B480A
:1032300002603B4802603B4802603B48027001F07C
:103240001DFE01F0CBFE204601F048F92088002841
:1032500041D1204601F0ECFB208800283BD12046DC
:1032600001F00AFC2088002835D1204601F09EFCA0
:10327000208800282FD1204601F03EFE208800281B
:1032800029D1204601F094FF2088002823D1204630
:1032900002F030F8208800281DD1204601F03CFBC8
:1032A0002088002817D1204601F0ECF9208800285A
:1032B00011D1204602F0AEFB208800280BD1204619
:1032C00002F00AFC2088002805D101F0E3F8BDE8EF
:1032D0001040FFF7E4BD10BDE4070020E507002023
:1032E0002C08002064080020680800201208002034
:1032F00013080020140800202008002024080020C3
:10330000280800203474000830740008C407002026
:10331000C8070020CC070020D0070020D4070020D9
:10332000D8070020DC070020420800200548064995
:103330000068096800EB8100044920F0070008607C
:103340007047000030740008347400086C080020D6
:1033500005480078012805D104490878FA2801D2E7
:10336000401C087070470000E5070020E4070020BB
:10337000184810B5007801282BD1FCF7F3FF164947
:103380000446087800B3401E10F0FF0008701BD1FF
:1033900012480078C0B901F05FFD11490870114969
:1033A00000EB400051F820000F4908600F49096800
:1033B000884209D050F8901F491C01600C480168F0
:1033C000491C0160FEF7A2FD2046BDE81040FCF755
:1033D000CDBF10BDE5070020E40700202C08002029
:1033E00013080020FC3D002068080020640800202D
:1033F000380800202DE9F04104461A480F461546CA
:10340000007810B142F6E1602AE03CB3FCF7AAFF75
:10341000154E3178491C3170FCF7A8FF1348C4E9F8
:1034200000070027276284F825704020A76284F8EF
:10343000240004F1080001F050FC204601F0A4FB38
:103440000B490888401C0880FCF78CFF3178491E26
:103450003170FCF78BFF2F80BDE8F08145F6C3503B
:103460001080F9E7E40700202C0800204D5554583F
:10347000100800202DE9F04F06466D4889B01C4623
:103480000078129D17468B4610B146F2AE10B2E09E
:1034900036B147B1B7F5004F05D045F62560AAE033
:1034A00045F6C350A7E063493068884202D045F62C
:1034B000C450A0E04FF000080CB1C4F80080FCF745
:1034C00051FF96F825105C4B012281B19A46D6F83F
:1034D00020C01B689C451CD1491C86F825100CB1E6
:1034E000B16A2160FCF742FF45F2827083E01968FF
:1034F000316291F8371086F8241086F825200CB137
:10350000B16A2160FCF732FFA5F8008009B0BDE880
:10351000F08F390404D5FCF729FF46F2B0106AE0B9
:1035200046490B7823B1FCF721FF46F6635062E071
:1035300089460A70FCF71AFF376ADAF8000097F834
:10354000372090F837108A421ED997F8360008289D
:103550003BD2DFE800F00413161613131616384694
:1035600001F09CFDDAF8000090F8370087F837008A
:1035700001F090FC384601F05BFD05E087F837105C
:1035800002E0384601F090FB5B4604223146684673
:1035900001F018FBFCF7E6FE99F80020521E89F8AE
:1035A0000020FCF7E3FE00F0A1F9FCF7DBFEDAF8FF
:1035B000002092F8351001B3012924D0022931D01E
:1035C000032926D046F62E6128E0FCF7CBFE99F8B9
:1035D0000010491E11F0FF0189F8001007D11849A9
:1035E000098821B1FCF7C2FE01F082FD01E0FCF781
:1035F000BDFE46F62D60288088E70CB1116C216075
:10360000A5F800800BE00CB1116C216046F2A91105
:1036100004E00CB1C4F8008047F2D9212980FCF7FE
:10362000A5FE73E70CB1116C216045F6C251F5E7B8
:10363000E40700204D555458640800202C08002051
:10364000F00700202DE9F84F0446594815468A46F0
:10365000007810B146F20E2011E03CB1080008D00D
:10366000B1F5004F05D045F6256008E045F6C3509A
:1036700005E050492068884204D045F6C4501080C7
:10368000BDE8F88FFCF76EFEDFF82C91226AD9F8BE
:1036900000108A4204D0FCF769FE45F281706CE0AC
:1036A000DFF8188198F80020521C88F80020FCF7F9
:1036B0005DFEFEF76BFC0646A06294F82500DFF87D
:1036C00000B1401E10F0FF0084F8250016D0FCF772
:1036D00049FE98F80010491E11F0FF0188F800100B
:1036E00007D1BBF8001021B1FCF740FE01F000FD4E
:1036F00001E0FCF73BFE45F283703EE0208A04F1D6
:103700000807E0B3D9F8000094F8243090F8372087
:103710009A4213D001F0C2FCD9F8001094F82400AA
:1037200081F8370001F0B6FBD9F8000001F09CFCED
:10373000D9F80000234990F8370008703868002352
:103740001A468168216291F8370084F8240001202C
:1037500084F825002046009601F01FFBFCF702FECE
:1037600098F80020521E88F80020FCF7FFFD5FEA61
:103770000A4001D400F0BAF80020288080E7FFE773
:1037800000262662FCF7EEFD98F80010491E11F0A5
:10379000FF0188F8001007D1BBF8001021B1FCF739
:1037A000E5FD01F0A5FC01E0FCF7E0FD2E8067E7F8
:1037B000E40700204D555458640800202C080020D0
:1037C000F0070020120800202DE9F04104461C48B3
:1037D0001746884600781D4610B142F6E1602CE09D
:1037E00034B347B3FCF7BEFD164E3178491C317037
:1037F000FCF7BCFD1448C4E90008394604F1200078
:1038000001F078F904F1080001F067FA204601F0B0
:1038100061FB0E490888401C0880FCF7A3FD317845
:10382000491E3170FCF7A2FD00202880BDE8F08120
:1038300045F6C35001E046F294501880F6E70000C8
:10384000E40700202C080020515545551C08002095
:103850002DE9FF471E460C9C9046894605000ED078
:103860004FF40070B3F5004F18D00BDCB3B1102B40
:1038700014D0834212D0B6F5047F0CD10EE045F689
:10388000C35011E0A6F50043103B07D0B3F5F87F15
:1038900004D0834202D045F6256005E0114F286828
:1038A000B84204D045F6C4502080BDE8FF87FEF73B
:1038B0006DFB0D49097859B10021CDE90016CDE91C
:1038C000020443464A462946384600F00FFFECE71B
:1038D000CDE90004334642464946284601F018FB2C
:1038E000E3E7000051554555E4070020154810B5A1
:1038F0000078002824D114480078002820D1FCF753
:1039000031FD044601F0A8FA10490870104900EB97
:10391000400051F820000F4908600F4909688842AB
:1039200009D050F8901F491C01600C480168491CDF
:103930000160FEF7E6FA2046BDE81040FCF716BD30
:1039400010BD0000E40700202C0800201308002010
:10395000FC3D002068080020640800203808002092
:1039600070B504461048007810B146F6625019E070
:103970000E480078012802D045F6896012E00C4D0F
:103980002878FA2802D345F209200BE0FCF7EAFC7C
:1039900006462878401C287001F0CCFB3046FCF726
:1039A000E5FC0020208070BDE4070020E507002032
:1039B0002C08002070B504461548007810B146F672
:1039C000655023E013480078012802D045F689604D
:1039D0001CE0114E307870B1FCF7C4FC054630781D
:1039E000401E10F0FF00307008D02846FCF7BEFCE7
:1039F00046F663500AE046F6645007E001F0A8FB83
:103A00002846FCF7B3FCFFF771FF0020208070BD53
:103A1000E4070020E50700202C0800202DE9F041F4
:103A2000044618481746884600781D4610B142F6ED
:103A3000E16025E014B3FCF795FC134E3178491C86
:103A40003170FCF793FC2762002710486762C4E9D5
:103A5000000804F1080001F040F9204601F096FB4F
:103A60000B490888401C0880FCF77CFC3178491E13
:103A70003170FCF77BFC2F80BDE8F08145F6C35028
:103A80001880F9E7E40700202C08002053454D4139
:103A9000340800202DE9F0470646494888B01C4606
:103AA0000078109D91468A4610B146F2AE100AE0A9
:103AB0003EB1100009D0B2F5004F06D045F62560A2
:103AC00001E045F6C35028805BE03E483168814202
:103AD00002D045F6C450F6E7002704B12760FCF792
:103AE00041FCD6F82080B8F1000F0BD0A8F10108F6
:103AF000C6F820800CB1716A2160346AFCF736FC8C
:103B00002F8054E05FEA094108D5FCF72FFC46F20C
:103B1000B0102880404608B0BDE8F0872A490A78EE
:103B200022B1FCF723FC46F66350CCE7884601211E
:103B300088F80010FCF71AFC534606223146684606
:103B400001F040F8FCF70EFC98F80010491E88F8C8
:103B50000010FCF70BFCFFF7C9FEFCF703FC024664
:103B60001A48016891F8350068B1012810D0022880
:103B70001FD0032812D046F62E6028801046FCF78E
:103B8000F5FB0020C7E70CB1086C20602F800AE02D
:103B90000CB1086C206046F2A91003E004B1276064
:103BA00047F2D92028801046346AFCF7DFFB204614
:103BB000B1E70CB1086C206045F6C250F2E7000096
:103BC000E407002053454D412C08002064080020E4
:103BD0002DE9FF410C46060015460DD07CB1B4F529
:103BE000007F0CD0B4F5004F09D0B4F5024F06D0D9
:103BF00045F6256010801AE045F6C350FAE7124FEB
:103C00003068B84202D045F6C450F3E7FEF7BEF97B
:103C100002460E48007870B1002003950090CDE96F
:103C20000142034602463146384600F05FFD04B0CB
:103C30000020BDE8F08104B02B4621463046BDE8A7
:103C4000F04101F0C1BA000053454D41E4070020A6
:103C500070B50F4D0446287818B145F68A6020806B
:103C600070BD01F0F9F80B4908700B4908700B4959
:103C700000EB400051F8200009490860094908603C
:103C800001202870FEF72CF943F69920E7E70000A1
:103C9000E50700201308002012080020FC3D00204A
:103CA00068080020640800202DE9FF4F83B0044617
:103CB0005D48DDE91785DDE910970078139E93468E
:103CC00010B147F24A102BE054B1BBF1000F0AD0FB
:103CD00067B15648006886420BD246F630601FE056
:103CE00047F2AD101CE047F24F1019E046F62F6086
:103CF00016E01298B04202D346F6316010E046F268
:103D00007320B9F1400F0BD25FEA090103D0B9F17A
:103D10003F0F02D008E0464900E046498C4203D0FC
:103D2000288007B0BDE8F08F204601F0F3FA4FF08D
:103D3000000AA5F800A05FEAC8700AD05FEA8870A0
:103D400007D538460021524601E004C0491CB14263
:103D5000FBD31298CDE9006807EB80052B463A4665
:103D60005846069900F0B0F9C4F828B00699E16207
:103D70000499216284F83790A560206015986065E9
:103D800016986762A6636060A4F83C8000205146E4
:103D900004EB8002401CD16710F0FF00F8D004F162
:103DA0006400149900F0A6FE204600F04DF8FCF7E0
:103DB000D9FA214D2978491C2970FCF7D7FA94F8D3
:103DC000370001F067F8204601F04EF9204601F077
:103DD00063FA1A490888401C0880194800780128AD
:103DE00016D0FCF7BFFA2978491E11F0FF0129709F
:103DF00009D11449098831B1FCF7B8FA07B0BDE818
:103E0000F04F01F075B907B0BDE8F04FFCF7AEBA5E
:103E1000FCF7A8FA2978491E2970FCF7A7FA07B021
:103E2000BDE8F04FFFF762BDE407002044740008CE
:103E30002C3D0020683C00202C0800204008002079
:103E4000E5070020F007002002490968002900D09A
:103E500008477047C407002070B504463D480D462A
:103E6000007810B147F24E100AE03B48844202D17C
:103E700047F24C1004E03948844203D147F24D1018
:103E8000088070BD2CB9FCF76DFA35490C68FCF759
:103E90006DFAFCF767FA334E3178491C3170FCF744
:103EA00065FA94F8360008283ED2DFE800F00408EE
:103EB0000C0C1C080C0C204601F0F0F813E0204616
:103EC00001F0D4FC0FE0204601F0D0FC94F834005F
:103ED000072808D2DFE800F0070407040404040000
:103EE000204600F02CFF04F1640000F0E9FD2046BC
:103EF00000F03EF8204601F0E1F91B490888401E19
:103F00000880204601F006FAFF2084F83600FCF70E
:103F100029FA3178491E3170FCF728FA00202880F0
:103F2000BDE87040FFF7E2BCFCF71CFA3178491E8F
:103F300011F0FF01317007D10C49098821B1FCF75C
:103F400015FA01F0D5F801E0FCF710FA46F62D60FD
:103F5000288070BDE4070020683C00202C3D002034
:103F6000640800202C08002040080020F0070020F2
:103F700002490968002900D008477047C807002097
:103F800002490968002900D008477047CC07002083
:103F90002DE9F0478246494814460F4600781D46F1
:103FA00010B146F2AE1005E037B1B7F5004F03D0BF
:103FB00045F62560188037E0002604B12660FCF73E
:103FC000D1F9DFF8FC808146D8F80000416CD1B10E
:103FD000491E4746884641640CB1006C2060FDF7DD
:103FE000D5FF39680A6C801AC1F8A400D1F8A8205E
:103FF000824201D2C1F8A8004846FCF7B7F92E80EA
:104000004046BDE8F087380405D54846FCF7AEF9D0
:1040100046F2B01007E02B4F387838B14846FCF72D
:10402000A5F946F6635028800020EAE701203870A1
:104030004846FCF79BF9002153460722084600F04A
:10404000C1FDFCF78FF93978491E3970FCF78EF9FC
:10405000FFF74CFCFCF786F9D8F80010814647467C
:1040600091F8350030B1012816D003281AD046F651
:104070002E601BE074B1086C2060FDF787FF396883
:104080000A6C801AC1F8A400D1F8A820824201D29B
:10409000C1F8A8002E800AE00CB1086C206046F23E
:1040A000A91003E004B1266047F2D92028803868BF
:1040B000446C4846FCF75AF92046A2E7E407002082
:1040C000640800202C08002030B5044603984FF403
:1040D000805502EB800020F00700002240E90252E8
:1040E000152540F80C5C142540F8105C132540F8A9
:1040F000145C122540F8185C112540F81C5C102552
:1041000040F8205C092540F8245C082540F8285C2C
:10411000072540F82C5C062540F8305C052540F862
:10412000345C042540F8385C032540F83C5C0225EB
:1041300040F8405C012540E912252A0640E9144276
:104140002F4A40F8542C4FF0123240F8582C4FF0C0
:10415000033240F85C2C4FF0023240F8602C40E90A
:104160001A13312140F86C1C302140F8701C2921B1
:1041700040F8741C282140F8781C272140F87C1C4A
:10418000262140F8801C252140F8841C242140F879
:10419000881C232140F88C1C222140F8901C2121EE
:1041A00040F8941C202140F8981C192140F89C1CD0
:1041B000182140F8A01C172140F8A41C162140F833
:1041C000A81C4FF0113140F8AC1CD10040F8B01CD5
:1041D0004FF0093140F8B41C910040F8B81C4FF082
:1041E000073140F8BC1C4FF0063140F8C01C4FF0BE
:1041F000053140F8C41D510040F8041D30BD0000D9
:1042000099550008114810B5006800B18047FDF7C6
:10421000BDFE0F490F4A09681368994209D0D1F8C9
:104220009820821AC1F89420D1F89C402244C1F809
:104230009C20094AC3F89800D1F8B4301068834232
:1042400001D2C1F8B4000020106010BDD8070020D2
:104250006408002068080020280800202DE9F041AB
:10426000064626480D461446007810B147F27520E0
:1042700030E0234F387810B146F663502AE045B15C
:10428000022D06D0042D05D0082D02D045F625605C
:1042900020E0EEB1FCF766F83978491C3970FCF77C
:1042A00065F8DFF8608001212346D8F800002A462F
:1042B00080F83610314601F06DFA208868B1FCF7BD
:1042C00051F83978491E3970BDE8F041FCF74EB815
:1042D00047F27E201080BDE8F081D8F8000000F0A1
:1042E000DDFEFCF73FF83978491E3970FCF73EF8DF
:1042F000FFF7FCFA00202080EDE70000E407002033
:104300002C0800206408002000B585B000F01CF8DF
:10431000FDF73CFE04AA002103920091CDE90110B3
:1043200006480749002300781A4600EB400001EBDD
:104330008001044800F0DAF905B000BD1208002041
:10434000FC3D00205449434B02480068002800D03F
:1043500000477047DC0700202DE9F05F044628483D
:10436000DDE90A9B00780D9D984616468A4610B1F5
:1043700047F2433042E044B14846B9F1010F0DD055
:10438000022805D045F6256038E045F6C35035E0F3
:10439000B8F1000F03D147F240302FE066B3FBF7CE
:1043A000E1FF184F3978491C3970FBF7DFFF012016
:1043B00084F82A0026620026A661C4F824801248E8
:1043C000E661C4E9000AA4F82890C4F808B00C9883
:1043D000C4E903062046666101F070FB0B490888BA
:1043E000401C0880FBF7BEFF3978491E3970FBF787
:1043F000BDFF2E80BDE8F09F47F23F302880F9E7EF
:10440000E40700202C080020544D522050080020C2
:10441000F8B505461D480C46007810B147F2433008
:1044200009E035B11A492868884206D045F6C450DB
:1044300028E047F24230088025E06846FFF790FA0E
:1044400095F82A10C9B1002601290CD0022907D0FD
:10445000032908D06846FFF7ADFA47F2413011E072
:10446000284601F05DFC0021284601F0B7FB6846B4
:10447000FFF7A0FA26800120F8BD6846FFF79AFAF8
:1044800047F23D3020800020F8BD0000E407002006
:10449000544D52207047000030B4064C029D2468F1
:1044A00044F8802F0022238162602B4630BC012219
:1044B00000F088BB640800200023074A05A143617F
:1044C000C161116819B181614861106070478361F1
:1044D000FBE7000020000000FC070020034A002149
:1044E0001160034A1180018070470000FC07002022
:1044F000000800202DE9F0479A4690460D460446F4
:10450000089EFBF72FFF01465FEA080022D0012832
:1045100007D0B0F5004F1DD06FF4004218EB020F2A
:1045200012D1206AA843C4E9080A208A04F10805C8
:104530004FF0000988B1394F3878401C3870084670
:10454000FBF714FF2D6841E00846FBF70FFF45F627
:1045500025605FE0206A2843E5E70846FBF706FF91
:10456000A6F80090206ABDE8F08790F888106D6882
:1045700001F00F01012918D002291ED004290AD008
:1045800008290DD0FBF7EEFE3978491E11F0FF0126
:10459000397033D03AE0216AD0F88020114009E028
:1045A000216AD0F8802011400BE0D0F88010236AF7
:1045B0000A4699438A4205D007E0D0F88010226A63
:1045C000914311B1524600F02DF815B1A8680028AA
:1045D000CBD1FBF7C7FE3978491E3970FBF7C6FE11
:1045E0005FEA084001D4FFF781F9FBF7BBFE246ABC
:1045F000FBF7BCFEA6F800902046B4E708490988FE
:1046000021B1FBF7B3FE00F073FD01E0FBF7AEFE56
:1046100043F6FF2030800020A5E700002C08002092
:10462000F007002070B50025C0F8841080F83550E0
:1046300080F834500446026490F8360008280ED200
:10464000DFE800F00D0D04040D0D0A0A204600F00D
:1046500037FF84F8365002E0042084F83600204604
:10466000BDE8704000F06BBB054CFBF77BFE21689A
:10467000491C2160FBF77AFEFEF7A4FDF5E7000078
:10468000E007002000B50E4A89B0002111600B221E
:1046900005910691CDE907200A480B4A0B4B0068AB
:1046A00012681B680292CDE903013F20CDE90003A7
:1046B0000023074A07A10C48FFF7F6FA09B000BD2E
:1046C000E0070020107400080C740008087400084B
:1046D0006946000875432F4F532D494949204964C5
:1046E0006C65205461736B00683C00202DE9F05F1D
:1046F0001E46DDE90AAB90460F4681460D9CFBF74E
:1047000031FE1D491D4A05460888128890422BD269
:10471000401C80B208801A490A88824200D2088070
:10472000184A1068C0F80090C0E902780682C0F804
:1047300014A0A0F818B00C99C1614068106012482C
:1047400001210181114901604160002000F0A2FBBC
:104750000F48007808B10F490870002020802846D3
:10476000BDE8F05FFBF702BE0B480188491C0180E1
:1047700044F25360F2E70000F0070020FE730008E7
:10478000F2070020E8070020FC3D00202C3D00201F
:104790001208002014080020F40700203EB532481B
:1047A000324A02AB006801688C1A914245D015DC90
:1047B0002F4A89182DD02F4A891822D02E4A8918BD
:1047C00032D02E4AD14208D1C169CDE90013038B02
:1047D000028AC168806800F0FDFD3EBD284961186D
:1047E0001DD0284A891823D0274AD142F5D1C16962
:1047F000CDE90013038B028AC168806800F088FB52
:104800003EBD0093028BC36941698068FFF772FE69
:104810003EBD018BC269806800F0D6FC3EBD806859
:10482000194600F05BFE3EBD018BC269806817E04F
:104830008068194600F044FF3EBDC269002113485C
:1048400000F0B6FE12490868401E0860F4D1114815
:1048500000680860FDF79AFB024602AB00210E4893
:1048600000F0A6FE3EBD0000EC0700205449434B7B
:10487000ADBAB2BE0DF90BFAF2F8F7FF0006F6FF7B
:1048800000F7FDF700FFEFFF03FE0FFEFC400020E6
:10489000600800205C080020C04100201A4F1B4C1B
:1048A0000025DFF86C80FBF75DFD06462088E8B147
:1048B0003046FBF75BFDFDF769FB0646FFF76EFF31
:1048C000FDF764FB3968801B814200D23860FBF73A
:1048D00049FDD8F800205268C8F800202188491EF8
:1048E0002180FBF743FD002DDDD0D9E709490020E9
:1048F00008810860486000F0DDFA3046FBF736FDBD
:10490000FEF7F4FFCCE70000F8070020F0070020D6
:10491000EC070020FC3D0020F0B52F492F4D89B059
:1049200000240C80296831B12D4E3188022905D22E
:1049300044F2546135E044F2526132E029490023E7
:10494000294F0C60296801F1200210E041F8087B32
:104950005B1C41F8084B9BB241F8044C21F8104B0A
:1049600041F80C4C21F8084C41F81C2C2032B6F8C8
:1049700000C06345EAD32A6841F81C2C1B490A6031
:104980001B490A601B491D4A0C801B490C80116899
:1049900051B11B491B4D0B682D68AB4207D244F245
:1049A0005661018009B0F0BD44F25561F9E7032377
:1049B00005940694CDE9073008681349126800236E
:1049C0000968CDE903040094CDE901210F4A10A143
:1049D0001648FFF769F9E5E7F407002018740008A6
:1049E000FE730008F80700204E4F4E45E8070020F0
:1049F000EC070020F0070020F207002020740008D8
:104A00002874000844740008247400089D480008B5
:104A100075432F4F532D4949492049535220517511
:104A2000657565205461736B000000002C3D00200B
:104A3000034A00211160034A118001807047000081
:104A4000040800200808002010B5491E8CB200217F
:104A500000F110020B4608E0E0E80223491C20F8B0
:104A6000083B89B240F8043C1032A142F4D3036001
:104A700043600381C36010BD70B50E4D04462868C5
:104A800080B10D4E308880B181B22868FFF7DCFF1D
:104A90000A4829680160318881800021C180018134
:104AA000218070BD45F21E7001E045F21D7020802E
:104AB00070BD00004074000800740008F03D002044
:104AC00010B5428992B10A4903680C681C604368BA
:104AD0000B60CB8844891B1BCB808B884489234483
:104AE0008B8000214181818101604160104610BDB1
:104AF000F03D002001810021418181810160416000
:104B000070470000F0B54489DDE905E60589AC424F
:104B100002D346F293501EE01A4DAF88CFB12C68F5
:104B20007F1ED4F800C0C5F800C0AF80EF887F1C9E
:104B3000BFB2EF80B5F808C0BC4500D22F814789CD
:104B4000002557B1DB060CD403681C6025600460A7
:104B50000AE045F21D703080F0BD0460012344601E
:104B600004E043682360446043895B1C4381878978
:104B70009BB29F4200D2838161602281C4F80CE025
:104B80003580F0BDF03D00200023074A05A14361B8
:104B9000C161116819B1816148611060704783611A
:104BA000FBE70000200000000C080020034A002161
:104BB0001160034A11800180704700000C0800203A
:104BC000100800202DE9F041114D07460C462868D9
:104BD0000026194680F8342080F8356000F046FB46
:104BE00064B1FC6004F1080601223946286800F02F
:104BF00011F83946304600F075F802E02868C6879B
:104C0000066320462968BDE8F04100F01BB80000AB
:104C10006408002010B5C2870024234601630EE01B
:104C20004B6041F8103B641C41F8103BA4B241F8C2
:104C30000C3C21F8083C41F8043C41F8180C944223
:104C4000EED310BD38B14268C1F8C02081688968D0
:104C5000096AC161704791F83400022803D007281F
:104C600003D004A002E004A000E005A0C1F8C00049
:104C700070470000200000005461736B2051000059
:104C80005461736B2053656D0000000005A2C1F8EC
:104C9000C020816811B18968096A00E001A1C16181
:104CA000704700002000000070B580F83710C58FF5
:104CB000046B0FE0E668308A0836012807D92146E0
:104CC000304600F04FF82146304600F00BF86D1EDC
:104CD000ADB22034002DEDD170BD002101604160E6
:104CE0000181704730B58A68002592F83740028903
:104CF0001AB1521C028102680BE0012202814D6050
:104D00000D60016014E0936893F83730A34203D834
:104D10005268002AF7D107E032B1136853B1C1E9F4
:104D200000325960116030BD4D6042680A605160C8
:104D3000416030BD1160C1E90052016030BD70B505
:104D40000646C58F046B07E0E0682146083000F096
:104D500009F86D1EADB22034002DF5D10020F0878A
:104D6000306370BD10B502890024012A0BD00A6897
:104D700062B14B6873B153601A600289521E02819E
:104D80004C600C6010BD04604460F6E74A68146033
:104D90000260F2E754604260EFE7F8B50C46054662
:104DA00091F836100026069808293BD2DFE801F07A
:104DB0003A3A04043A3A202094F83410032911D0E6
:104DC000E265A4F86030206435B12046FFF7B7FFF4
:104DD00021462846FFF75AFF204600F071FB84F871
:104DE00036601BE000902146284600F022F8EBE7F1
:104DF00094F83410032916D0E265A4F860302064DA
:104E0000204600F033FD35B12046FFF798FF2146DC
:104E10002846FFF73BFF042084F8360084F835600D
:104E200084F83460F8BD00902146284600F001F86F
:104E3000E6E770B50C6B049DC98F0AE0E668864210
:104E400004D1C4E904022383E56170BD491E89B21F
:104E500020340029F2D170BD10B50024064802E0CC
:104E60002034E4B2001D01680029F9D00846FBF7A0
:104E700084FA2044C0B210BDBC0700200020044AC0
:104E8000014642F82010401C0228FAD37047000067
:104E9000BC07002000F01F0241090120C2F11F02DF
:104EA0009040034A52F82130034342F821307047C2
:104EB000BC07002000F01F0241090120C2F11F02BF
:104EC0009040034A52F82130834342F82130704722
:104ED000BC0700200023074A05A14361C161116896
:104EE00019B181614861106070478361FBE7000080
:104EF0002000000018080020034A00211160034A26
:104F00001180018070470000180800201C08002054
:104F10002DE9FF4F83B01E46DDE9107A93468146A6
:104F2000FBF720FADFF8AC8098F80020521C88F8D4
:104F30000020FBF71BFAB9F8104009F1080024B172
:104F4000B10500D4012405682FE0F00601D4002348
:104F500000E01023CDE9007A5A4609F120000499B7
:104F6000FFF7D0FDFBF7FEF998F80010491E11F08D
:104F7000FF0188F8001009D11749098831B1FBF702
:104F8000F5F907B0BDE8F04F00F0B2B807B0BDE8E2
:104F9000F04FFBF7EBB9A9686D685B460097484690
:104FA000049AFFF7FAFE641EA4B2002CF3D1FBF7BB
:104FB000D9F998F80020521E88F80020FBF7D6F99E
:104FC000300401D4FEF792FC0021AAF8001007B0CB
:104FD000BDE8F08F2C080020F00700200020074BD0
:104FE000024600EB400103EB8101401C0A810A608C
:104FF000C0B24A604028F4D370470000FC3D002056
:1050000010B5044690F83700FFF744FF074994F8BD
:10501000370009788842204603D1BDE8104000F0EF
:1050200023B8BDE8104000F003B8000012080020CB
:1050300090F837100B4A01EB410102EB810100238C
:105040000A8942B1521C0A810A68C0E903230A682E
:1050500010610860704701220A81C3600361086023
:1050600048607047FC3D002090F837100A4A01EB79
:10507000410102EB810100230A893AB1521C0A81E5
:10508000C3604A680261D0604860704701220A81AB
:10509000C36003610860F7E7FC3D002070B504467B
:1050A00090F83700114900EB400001EB8001D4E992
:1050B0000320002540B10B895B1E0B81C26092B1B9
:1050C00010612561E56070BD2AB10889401E088124
:1050D00015610A60F5E70D810D604D6094F83700A9
:1050E000FFF7E8FEEDE74860EBE70000FC3D00203D
:1050F00010B5FBF737F90B490446002008700B4840
:105100000949016051F8900F401C0860084908687F
:10511000401C0860FCF7F5FE2046BDE81040FBF798
:1051200025B90000130800202C3D0020680800204D
:1051300038080020044810B50078012803D1FCF796
:1051400025FF0249086010BD2C080020200800201F
:105150000A4810B5007800280ED1FCF717FF08495F
:105160000968401A07490A68824200D20860064965
:105170000A68824200D2086010BD00002C0800209E
:105180002008002024080020280800200023074AC7
:1051900005A14361C161116819B181614861106065
:1051A00070478361FBE7000020000000300800200A
:1051B000034A00211160034A1180018070470000FA
:1051C00030080020340800202DE9F84F1F46904693
:1051D00089460646FBF7C6F8318A06F108054FF006
:1051E000000B69B1DFF880A09AF80020521C8AF801
:1051F0000020FBF7BBF85FEA895012D52C8911E03B
:10520000346A611C05D0641CC6E90848FBF7AEF897
:1052100026E0FBF7ABF846F6C55038800020BDE825
:10522000F88F01242D680AE0A9686D6800231A46EA
:105230003046CDF80080FFF7B0FD641EA4B2002C0C
:10524000F2D1346AFBF78EF89AF80020521E8AF8E1
:105250000020FBF78BF85FEA094001D4FEF746FB1C
:10526000A7F800B02046DAE72C08002038B504463D
:10527000022531B16B46022200F08CFABDF8000025
:1052800028B184F836502046FFF708FF38BD0320C8
:1052900084F83600F7E70000074B0022C0F8B8207A
:1052A000196829B1C0F8BC10C1F8B800186070477F
:1052B000C0F8BC20FAE700003C080020D0E92E210D
:1052C00000234AB181B1C2F8BC10C1F8B820C0F8BF
:1052D000BC30C0F8B8307047054A116009B1C1F858
:1052E000B830C0F8BC307047C2F8BC30F1E70000FD
:1052F0003C080020044A00211160044A1180044A3D
:1053000011600180704700003C0800204008002028
:105310003808002070B50025056085604560C560CF
:10532000056145610446856127A0C4E907506562AF
:10533000A562E5622564E565A4F86050294604F19C
:105340006400FFF7D7FB6567A567C4F88050A4F831
:1053500088500020C4F8845004EB8001401CCD67C5
:1053600010F0FF00F8D06564C4F8A450C4F8A85049
:10537000A56384F88A50C4F8B050C4F8AC50A5872F
:105380004FF00040C4E9120525656565A565A4F8E0
:105390008C50A4F88E50C4F89050C4F89450343413
:1053A000FCF7F4FDC4E91905C4F8805004F8015B6A
:1053B000402004F8015B04F8015B04F8810B04A0B1
:1053C00020C4C4E9005070BD3F5461736B000000FD
:1053D000200000002DE9FC5F9946DDE90C7592463E
:1053E0008B460446FAF7BEFF324E3178491C3170C5
:1053F000FAF7BCFF0CB9304804680020288094F804
:105400003600DFF8B88008283CD2DFE800F004045A
:105410001E1E04041E1ECDE900754B465246594619
:1054200004F16400FFF76EFBFAF79CFF3178491E28
:1054300011F0FF01317021D1B8F80010F1B1FAF785
:1054400095FFBDE8FC5FFFF753BE94F834000228D7
:10545000E1D153465A46214600200097FFF79DFCB4
:10546000FAF780FF3178491E3170FAF77FFF5FEA63
:1054700009401CD4BDE8FC5FFEF738BABDE8FC5F0C
:10548000FAF774BFFAF76EFF3178491E11F0FF0189
:10549000317007D1B8F8001021B1FAF767FFFFF7B4
:1054A00027FE01E0FAF762FF46F62D602880BDE88E
:1054B000FC9F00002C08002064080020F00700205A
:1054C00010B5044600F0D2F994F83610490704D418
:1054D0002046BDE81040FFF793BD10BD70B50D46E6
:1054E0000446FAF73FFF00262E8094F8361008296C
:1054F0004AD2DFE801F0040404040A23333DFAF73A
:1055000035FF47F25310288024E0224D2978491CAA
:105510002970FAF72BFF94F88A00401E10F0FF0064
:1055200084F88A0004D184F836602046FFF7C8FF6B
:10553000FAF718FF2978491E297009E094F88A10B3
:10554000491E11F0FF0184F88A1001D1012118E0F1
:10555000FAF70CFFBDE87040FEF7C8B994F88A105E
:10556000491E11F0FF0184F88A10F1D1022108E0F0
:1055700094F88A10491E11F0FF0184F88A10E7D1CF
:10558000032184F83610E3E7FAF7F0FE46F62D60C3
:10559000288070BD2C080020044808B50068FEF77C
:1055A000EFFC69460020FEF757FC08BD64080020A8
:1055B0002DE9F84F984616468A460446FAF7D2FE79
:1055C0003C4D2978491C2970FAF7D0FE0CB93A48AD
:1055D00004680020394F2664A8F8000094F83600CB
:1055E00046F6C55908284DD2DFE800F025252121CF
:1055F00025252121FAF7BAFEFFF77AFD01E0FAF737
:10560000B5FEA8F800900020BDE8F88F761C66640F
:10561000FAF7A8FE2978491E11F0FF0129702ED152
:10562000398861B3FAF7A2FEFFF762FD40E094F813
:10563000340007280ED0666C701CE7D1FAF792FE92
:105640002978491E11F0FF012970D8D13988002925
:10565000D5D0CFE700231A46214618460096FFF71B
:105660009CFB666CFAF77EFE2978491E2970FAF7D2
:105670007DFE5FEA0A401BD4FEF738F918E0FAF71E
:1056800075FE15E0FAF76EFE2978491E11F0FF014C
:10569000297006D1398821B1FAF768FEFFF728FD95
:1056A00001E0FAF763FE46F62D60A8F80000002638
:1056B0003046A9E72C08002064080020F0070020ED
:1056C0002DE9F0410D460446FAF74CFE244904B991
:1056D0000C680968234E8C4206D1317821B1FAF763
:1056E00045FE46F6635038E00021298094F83610D4
:1056F000012708292DD2DFE801F004171F212727F1
:1057000027273178491C3170FAF730FE042084F8DD
:10571000360084F88A702046FFF7C0FCFAF722FEB4
:105720003178491E317001E0052108E0FAF71EFECC
:10573000BDE8F041FEF7DAB8062100E0072184F861
:10574000361084F88A70F1E714F88A1F491C21701A
:10575000ECE7FAF70BFE46F62D602880BDE8F081F5
:10576000640800202C08002010B500200246074BDA
:10577000074C06E003EBC001401C0A608A80CA8027
:1057800080B221888842F5D310BD0000583900202E
:1057900002740008F0B5324C002647F27E252468DA
:1057A000042A08D0B1B32E4D082A2D680D440BD021
:1057B000C0E9135115E00A1B521E12F5803F2AD88A
:1057C000521CC0E913120CE0826C0A44171B7F1EA6
:1057D0008F4201D2C26400E0C564C16C0A1B02653D
:1057E0008164204AC16C1288B1FBF2F502FB1511ED
:1057F0001D4A89B202EBC102918889B11168F1B1E9
:10580000CD6C2D1B0D65076DAF4212D94D6965B189
:105810002946F5E7FFE7C6640665C6611D80F0BD51
:1058200046618661012110600BE0C0E905614861B5
:1058300005E08C6974B1C0E90514606188619188E4
:10584000491C9180D48889B28C4200D2D180C26137
:105850001E80F0BDC0E9051688611060EFE700000A
:1058600044080020027400085839002010B5C169AE
:10587000002915D0002404650A68824204D14269D7
:105880000A6032B1946104E0D0E905235A6102B1A3
:10589000936144618461C461C4648888401E8880C7
:1058A00010BD00002DE9F05FFAF75CFD494A117860
:1058B000491C1170FAF75AFDFCF768FB464E834607
:1058C000464930684FF00309401C306009880025C4
:1058D000B0FBF1F201FB1200414980B22F4651F8B2
:1058E00030404FF0040AC4B394F83600D4F8148062
:1058F00008284DD2DFE800F04C044C104C254C3207
:10590000E06C3168421A2265884240D184F83670D2
:105910002046FFF7D5FD3BE0E06C3168421A226576
:10592000884234D1E765A4F86070FCF72FFB20644F
:105930002046FFF704FA2046FFF7C2FD84F83670D0
:1059400020E0E06C3168421A226588421FD184F859
:1059500036A02046FFF78AFF1AE01CE0E06C3168B1
:10596000421A2265884212D1E765A4F86070FCF7FC
:105970000DFB20642046FFF7E2F92046FFF776FF93
:1059800084F836A084F8359084F8347000E001255E
:105990004446002DA7D0FCF7F9FA1249A0EB0B0002
:1059A0000A68824200D20860FAF7DCFC094A1178E2
:1059B000491E11F0FF01117008D10B49098829B166
:1059C000FAF7D4FCBDE8F05FFFF792BBBDE8F05FEB
:1059D000FAF7CCBC2C080020440800200274000810
:1059E0005839002048080020F00700201CB5084C5A
:1059F00000216B4601AA0846FEF7CAFABDF800006E
:105A00000028F5D120780128F2D1FFF74BFFEFE70E
:105A1000E507002030B504461A4889B00025056026
:105A200019480560FFF7A0FE184A106840B11848F1
:105A3000184B01681B68994205D247F2132008E011
:105A400047F2122005E014490B783F2B04D347F2AC
:105A50001120208009B030BD0B2305950695CDE9B6
:105A600007340E4B006812681B68CDE902300192C2
:105A70000495087800900023094A0AA10E48FEF711
:105A800013F9E7E744080020480800204C74000898
:105A90005474000844740008FC7300085074000833
:105AA000ED59000875432F4F532D4949492054693A
:105AB000636B205461736B00FC400020054B002297
:105AC000C262196819B10163C86218607047026345
:105AD000FBE700004C08002030B52A4989B00023BC
