:020000040800F2
:1000000090430020150300081D0300081F0300088B
:100010002103000823030008250300080000000056
:10002000000000000000000000000000270300089E
:100030002903000800000000BF19000889540008C7
:100040002F0300082F0300082F030008495300085E
:100050002F0300082F0300082F0300082F030008B8
:100060002F0300085D1D0008891D00082F030008EC
:100070002F0300082F0300082F0300082F03000898
:100080002F0300082F0300082F0300082F03000888
:100090002F0300082F0300082F0300082F03000878
:1000A0002F0300082F0300082F0300082F03000868
:1000B0002F0300082F0300082F0300082F03000858
:1000C0002F0300082F0300082F0300082F03000848
:1000D0002F0300083D5A0008C15A00082F030008EA
:1000E0002F030008C95200082F0300082F0300083F
:1000F0002F0300082F0300082F0300082F03000818
:100100002F0300082F0300082F0300082F03000807
:100110002F0300082F0300082F0300082F030008F7
:100120002F0300082F0300082F0300082F030008E7
:100130002F0300082F0300082F0300082F030008D7
:100140002F0300082F0300082F0300082F030008C7
:100150002F0300082F0300082F0300082F030008B7
:100160002F0300082F0300082F0300082F030008A7
:100170002F0300082F0300082F0300082F03000897
:100180002F0300082F03000800F002F800F0B2F877
:100190000AA090E8000C82448344AAF10107DA45E2
:1001A00001D100F0A7F8AFF2090EBAE80F0013F082
:1001B000010F18BFFB1A43F00103184780610000CC
:1001C000A06100000A444FF0000C10F8013B13F04E
:1001D000070408BF10F8014B1D1108BF10F8015BA0
:1001E000641E05D010F8016B641E01F8016BF9D193
:1001F00013F0080F1EBF10F8014BAD1C0C1B09D1EA
:100200006D1E58BF01F801CBFAD505E014F8016B5B
:1002100001F8016B6D1EF9D59142D6D370470000ED
:100220000023002400250026103A28BF78C1FBD8FF
:10023000520728BF30C148BF0B6070476E2900F0DD
:10024000E182702900F04381662905F0C88765299D
:1002500005F0C587672905F0C2876129AFF30080E3
:1002600003681B0A28BF41F08001692900F08E82D3
:10027000642900F08B82752900F088826F2900F0D4
:10028000BB83782900F00F81E92900F05583E42928
:1002900000F05283F52900F04F83EF2900F0B88376
:1002A000F82900F00E810368DB0928BF41F08001C6
:1002B000632900F0C582732900F0CA82E32900F0A7
:1002C0005986F32900F05E86002070471FB505F0BF
:1002D00081FF00F0A5FE04000020002105F04EFF84
:1002E000401C60600020002105F05EFFE0601FBD43
:1002F00010B510BD00F06EFE1146FFF7E7FF05F0E8
:1003000007FF00F03FFF03B4FFF7F2FF03BC05F067
:10031000ECFE00000948804709480047FEE7FEE779
:10032000FEE7FEE7FEE7FEE7FEE7FEE7FEE7FEE7A5
:1003300004480549054A064B70470000A9540008C7
:1003400089010008903D002090430020903F00204C
:10035000903F002072B6704762B67047EFF310808E
:1003600072B6704780F31088704730BF704720BF67
:100370007047B0FA80F0704790FAA0F0B0FA80F0C1
:10038000704790FAA0F07047704700000A46014994
:1003900000F062BA340400200FB4044910B503AA77
:1003A000029800F059FA10BC5DF814FB34040020E8
:1003B00070B5044685690068C10601D5302600E0A5
:1003C0002026C00707D070BDD4E9012130469047F0
:1003D000206A401C20626D1EF6D570BD70B50446C3
:1003E00085690078C00707D170BDD4E901212020BC
:1003F0009047206A401C20626D1EF6D570BD70B516
:100400000C460546012A05D02878800600D5EA6901
:10041000002302E0012305E05B1C934202D2E05C72
:100420000028F9D1A869E618C01AA861286A1844FA
:1004300028622846FFF7BCFF04E0D5E9012114F843
:10044000010B9047B442F8D32846FFF7C7FF70BDB1
:10045000F0B40D460188090502D5214C7C4402E028
:100460001F4C7C440E34002100F1240608E002F009
:100470000F071209E75D42EA03721B097754491C12
:1004800052EA0307F3D102780023120704D5702D36
:1004900006D009B1022311342246F0BC00F01DB988
:1004A00001231034F8E770B504460D462146106864
:1004B00000F00AF9024629462046BDE870400023B4
:1004C000C6E7D21D22F00703D3E90023C0E7036883
:1004D000126843F0200303600823C3610023B7E7D9
:1004E000045E00002DE9F05F894604464FF0000AE3
:1004F000DFF874B1FB44C0F820A02046E1688847CB
:10050000002874D0252806D0D4E901219047206A1C
:10051000401C2062F1E700265F462046E1688847DC
:100520002028054607DB312D05D2781910F8200C5C
:1005300008B10643F1E7B00701D526F00406C4F878
:100540001CA00027C4F818A02A2D09D0284605F0C1
:10055000C5FD38B304EB8708303DC8F8185019E0E2
:1005600059F8041B204604EB87029161E168884733
:10057000012F054618D1E069002820DA26F0200670
:100580001DE0D8F8180000EB800005EB4000303883
:10059000C8F818002046E1688847054605F09EFD2A
:1005A0000028EED1012F0AD02E2D08D12046E16877
:1005B00088477F1C0546022F46F02006C4DBA06951
:1005C000002803DA404246F00106A061F00701D09E
:1005D00026F010066C2D0BD0682D09D04C2D39D08B
:1005E0006A2D35D0742D35D07A2D33D016E038E011
:1005F000E1682F4620468847B842054609D16C2F4E
:1006000026D04FF48060E1680643204688470546BF
:1006100004E06C2F1AD04FF4807006430DB3A5F19F
:100620004100192802D8203546F400664A4629467A
:10063000204626604E46FFF701FE80B101280BD010
:10064000F61D26F0070000F1080956E74020E4E710
:100650008020D8E70020D6E706F104094DE72846B8
:1006600052E7206ABDE8F09F945D00004FF0000261
:100670000429C0F0128010F0030C00F0D581CCF1F9
:10068000040CBCF1020F18BF00F8012BA8BF20F822
:10069000022BA1EB0C0100F0C7B95FEAC17C24BFBB
:1006A00000F8012B00F8012B48BF00F8012B704720
:1006B00070477047704709684A0501D540B27047D6
:1006C000C905FCD500B2704709684A0501D5C0B21A
:1006D0007047C905FCD580B270472DE9F0470D463B
:1006E00099469246044600F124080168880604D51C
:1006F000E06921F01001216000E00120A84201DD45
:10070000471B00E00027A1697A1902EB0900081ACB
:10071000A0612078C00602D42046FFF749FE0026DB
:1007200008E0D4E901211AF806009047206A401C2D
:10073000761C20624E45F4DB2078C0060AD52046A0
:10074000FFF736FE06E0D4E9012130209047206A09
:10075000401C2062381EA7F10107F4DC07E0D4E951
:10076000012118F805009047206A401C2062281ECD
:10077000A5F10105F3DC2046FFF730FE20780006E6
:1007800002D50220BDE8F0870120FBE72DE9F0410A
:100790000646002410687529314616A510D0FFF7CB
:1007A0008AFF002802DA404213A507E031688A0771
:1007B00001D512A502E0490704D511A5012401E0E5
:1007C000FFF782FF00210A2206F1240709E0B0FBAF
:1007D000F2FCB0FBF2F302FB1C00303078541846F8
:1007E000491C0028F3D123462A463046BDE8F04193
:1007F000FFF773BF000000002D0000002B00000079
:100800002000000011680268006A530501D50870D5
:100810000AE0D30501D5088006E0130603D5C21708
:10082000C1E9000200E008600120704710B543698B
:1008300013B1AFF3008001E0FFF7E1FD012010BD2F
:10084000127800F124010A7000224A700122EDE7BB
:1008500011684FF0FF32E9E7074B70B50D467B4456
:1008600000F06BFB0446284600F090FB10B14FF0FF
:10087000FF3070BD204670BD8B5800002DE9FF5F32
:1008800015468A460446DFF8AC80F8440027D8E9CC
:1008900000103E46CDE9001010E03AF816106A4606
:1008A00002A800F077FB411C07D02178890603D508
:1008B000E269391891420DD80744761C20788006E9
:1008C00002D5E069B84205DDAE42E6DB3AF8160033
:1008D0000028E2D1A069C01BA0612046FFF768FD97
:1008E000D8E90010CDE90010002017E03AF8181000
:1008F0006A4602A800F04EFBB0F1FF3F81460BD0E4
:1009000000250DF1080B05E0D4E901211BF80500D5
:1009100090476D1C4D45F7D308F10100B042804669
:10092000E4DB206A384420622046FFF757FDBDE82B
:10093000FF9F0000125A00002DE9F0418046D21DB1
:1009400022F007020025D2E90002F52915A614D0ED
:10095000011E72F1000106DA0023D0EB030063EB05
:10096000020211A608E0D8F800108B0701D50FA6E7
:1009700002E0490701D50EA601251146002408F121
:10098000240704E000F082F830323A55641C50EA43
:100990000102F7D12B46324621464046BDE8F041E0
:1009A000FFF79BBE000000002D0000002B000000A0
:1009B0002000000030B4002100F1240408E002F01F
:1009C0000705D208303542EA4372DB086554491CFA
:1009D00052EA0305F3D10468002310A2250708D5C5
:1009E00004F020040C4304D0C46901230CA2641E4B
:1009F000C46130BCFFF771BE10B5044621461068D3
:100A0000FFF762FE02462046BDE810400023D1E712
:100A1000D21D22F00701D1E90023CBE7000000003E
:100A2000300000004FF0000200B513469446964691
:100A3000203922BFA0E80C50A0E80C50B1F12001F1
:100A4000BFF4F7AF090728BFA0E80C5048BF0CC09F
:100A50005DF804EB890028BF40F8042B08BF7047FD
:100A600048BF20F8022B11F0804F18BF00F8012B6F
:100A700070470000004870472C3D002010B500F082
:100A8000CFFA001D10BD00BFF556000030B5B0F123
:100A90000A024FEA900E71F100034EEA817EB0EB3C
:100AA0000E0061EB91014FEA101E4EEA017E10EB41
:100AB0000E0041EB11114FEA102E4EEA016E10EBC1
:100AC0000E0041EB11214FEA104E4EEA014E10EBA1
:100AD0000E0041EB1141401841F100014FEAD000F6
:100AE00040EA41704FEAD10110EB80054FEA8104E2
:100AF00044EA907444EB01046D1944EB0404521B66
:100B0000A3414FF0000348BF0A3200D530BD401C5E
:100B100041F1000130BD70472DE9FF4F0C461E46E4
:100B20004FF0FF378BB0D2E90001DDF860800A900A
:100B30008A46C1F30A5505B93D46002108464FF0E3
:100B40000000BAF1000F00F4400005DA00EB80006D
:100B50004FF4400101EA50004FEA9059B9F1010FFA
:100B600000DDB9460A9850EA4A000ED044F610500B
:100B7000A5F2FF3545432F14B8F1000F1ED0754282
:100B8000291E1EDDC9F100021CE0B8F1010F4FF073
:100B9000000001D0302103E0F24305E02154401C65
:100BA000B042FBDB30460022002121540B99C1F8F2
:100BB0000880C1E900200FB0BDE8F08FBD1B6D1C9F
:100BC000DEE74A4600DA694206A800F06DFA06AB95
:100BD00093E8070003AB83E8070050460A9900F04A
:100BE00017FB8DE80700A0F500501F380090039810
:100BF000002D09DD42F21F014A46084403A9039073
:100C0000684600F076FD08E0A0F500504A461F381F
:100C100003A90390684600F080FD8DE807000004FA
:100C2000000C03D04FF0FF30410800E01046B8F14F
:100C3000000F03D00022009215461EE0751E05D459
:100C4000FFF724FF303262556D1EF9D5B3460122FD
:100C5000084302D000227F1C04E02078302801D114
:100C600000227F1E002A099786D01DE0112D07DA89
:100C7000FFF70CFF303262556D1C50EA0102F5D1CE
:100C8000084302D00098C8B10EE00021681E05E0BC
:100C9000235C625C63542254401E491C8142F7DB92
:100CA000AB46A81B401E0990002004F80B000B98CF
:100CB000099AC0F80880C0E9002B7CE711264FF0A4
:100CC000000859E72DE9F04F88460446D21D22F06E
:100CD000070191B0D1E90001CDE90A0105F0E6F97B
:100CE00002460B98C00F01D02D2007E02068810735
:100CF00001D52B2002E0202101EAC000032A09903F
:100D000001D0072A05DB03464146204600F08CF956
:100D10000BE12078800601D5E06900E00620B8F1FB
:100D2000650F814606D0B8F1660F18D0B8F1670F8D
:100D300070D131E00020B9F1110F009001DB1123D7
:100D400001E009F101030AAA01A90CA8FFF7E4FEDA
:100D5000DDE90C70002609F10105834647E001201A
:100D60004B4600904FF000470AAA01A90CA8FFF7D4
:100D7000D3FEDDE90DB00C995D46002610B909F1EE
:100D800001000D18B9EB050003D4C0F1FF3609F1DD
:100D90000105A5EB09002BE0B9F1010F01DA4FF0D5
:100DA00001090020B9F1110F0090484601DD11231F
:100DB00000E003460AAA01A90CA8FFF7ADFEDDE991
:100DC0000C704D4600268346207800070AD4AB45B8
:100DD00000DA5D4601A8012D04DD411911F8011C5E
:100DE000302907D04F4502DA17F1040F04DA012049
:100DF00082460FE06D1EEEE7002F02DCED1B3E4445
:100E000003E0781CA84200DD7D1CB81B00F1010A3C
:100E10004FF000472078000703D4AA4501DB4FF0CC
:100E2000FF3A0021B7F1004F0DF143088DF8431050
:100E300024D002202B23002F01DA7F422D230A2108
:100E4000021EA0F1010000DC5FB197FBF1FC97FBF3
:100E5000F1F201FB1C7C17460CF1300C08F801CDB7
:100E6000EEE7A8F1010003702188090501D54521AD
:100E700000E06521A0F1010800F8011C09980FA904
:100E8000A1EB0807FF1D00B10120411901EBEA7039
:100E9000A1693844081A401EA0612078C00602D417
:100EA0002046FFF785FA099828B1D4E90121904737
:100EB000206A401C20622078C00622D52046FFF719
:100EC00077FA1EE0002E04DBB34502DD01A8805D49
:100ED00000E03020D4E901219047206A401C2062C4
:100EE000761CAAF101005FEA000A0AD100F098F826
:100EF000C0680168405CD4E901219047206A401C29
:100F00002062281EA5F10105DCDC07E0D4E90121FF
:100F100018F8010B9047206A401C2062381EA7F188
:100F20000107F3DC2046FFF759FA032011B043E62E
:100F300001694A1C02610878704700B58FB0CDE99D
:100F400001310021059105497944CDE9031011468D
:100F50006846FFF7C7FA0FB000BD0000E5FFFFFFCE
:100F600010B5436913B1AFF3008001E0FFF786FCD1
:100F7000012010BD128800F1240182840022C28465
:100F80000122EDE711684FF0FF32E9E7007B00F046
:100F90008000704770B516460C460546FFF76EFD9B
:100FA000036893F80101012806D0FF2C0FD8185DC3
:100FB00068B101202C7070BDD3F80701324621467C
:100FC00003F2071303442846BDE8704018474FF06A
:100FD000FF3070BD7546FFF74DFDAE460500694612
:100FE000534620F00700854618B020B5FFF7A0F95A
:100FF000BDE820404FF000064FF000074FF000081A
:101000004FF0000B21F00701AC46ACE8C009ACE89A
:10101000C009ACE8C009ACE8C0098D4670470000C3
:10102000004870474C3D00202DE9F0411F46044622
:1010300003260168072A01F4006004DB08B116A545
:1010400005E016A503E008B115A500E015A521F0FF
:1010500010002060A069C01EA0610FB1401EA061F9
:101060002046FFF7A5F94FB1D4E901213846904752
:10107000206A401C2062C01C206206E0206AFAE759
:10108000D4E9012115F8010B9047761EF8D22046CD
:10109000FFF7A4F9BDE8F0814E414E006E616E008D
:1010A000494E4600696E66002DE9F04781461646B6
:1010B0008AB0334878440DC88DE80D003048784434
:1010C000801C03AC0DC884E80D0041F69B30084439
:1010D000372190FBF1F290FBF1F5A5F1800501FBC2
:1010E00012041B3C02D56442012000E00020DFF81E
:1010F00090A080460027FA44AAF1BE0A0DE0E0075E
:1011000009D03246684607EB47010AEB810100F03F
:1011100004FB8DE8070064107F1C002CEFD1184FF2
:101120007F44AC3F18E0E80714D007EB04100DF142
:10113000180A90E80E008AE80E00C068F04201D15B
:1011400098190890324606A903A800F0E6FA03AB06
:1011500083E807006D10641C002DE4D13246694617
:10116000B8F1000F03A802D000F0C3FA01E000F0CC
:10117000D4FAC9E90001C9F808200AB0BDE8F0872F
:101180006C5200000446AFF300802046FFF7BBF826
:101190004FF0013C50F8042B51F8043B9A4221D106
:1011A000A2EB0C03934313EACC1317D150F8042B92
:1011B00051F8043B9A4215D1A2EB0C03934313EA76
:1011C000CC130BD150F8042B51F8043B9A4209D1AF
:1011D000A2EB0C03934313EACC13DBD04FF00000D7
:1011E000704700BFD01A01BAB1FA81F101F01801BD
:1011F00022FA01F0CB40C1F12001DBB2C0B2C01A2B
:101200002CFA01F3D11A914311EAC311E6D17047C8
:101210005FEA400C08BF91F0000F4FEA8C234FEAC1
:10122000C12243EA51514FEA1C5018BF00F5F0406B
:101230004FEA300018BF41F000415FEA6C5C00F0FB
:101240002980BCF1FF3F08BF40F080407047130C7D
:1012500006BF12044FF0100C4FF0000C130E04BF29
:1012600012020CF1080C130F04BF12010CF1040C54
:10127000930F04BF92000CF1020CD30F04BF520075
:101280000CF1010C11464FF00002A0F11F00A0EB81
:101290000C00704711F0004F08BF704731F000415B
:1012A0003FF4D5AF0B0C06BF09044FF0100C4FF004
:1012B000000C0B0E04BF09020CF1080C0B0F04BF4D
:1012C00009010CF1040C8B0F04BF89000CF1020C16
:1012D000CB0F04BF49000CF1010CCCF12003A0EBB3
:1012E0000C0022FA03F302FA0CF241EA030100F1C6
:1012F0000100704720F07F4C80EA030023F07F4715
:10130000ACEB070303F57C5300F0004003F1FF034F
:101310002DE980494FEA154B09B44FEA144325EAF9
:101320000B4E24EA03480FF2042606EB1327490864
:101330003E785FEA320203FB0667C7F5000707FB4A
:1013400006F64FEA54374FEAD64606F1020607FB87
:10135000066CCCF1005C4FEA1C472CEA074C07FBFB
:1013600006F40CFB06F504EB15464FEA961634BF5F
:1013700000204FF000404FEAD13706FB07FC4FEA50
:101380001C4C0CFB0BF7D21B03FB0CF761EB0701AA
:101390000CFB0EF7B0EB074072EB17420CFB08F7A3
:1013A00034BFA2EB0742B2EB074261EB17414FEAB1
:1013B0000C444FEA910706FB07FC4FEA1C4C0CFB60
:1013C0000BF7B0EBC74072EB573203FB0CF734BF9F
:1013D000A2EBC742B2EBC74261EB57310CFB0EF7F1
:1013E000B0EBC70072EB57720CFB08F734BFA2EBEF
:1013F000C702B2EBC70261EB5771039F4FEA8161ED
:1014000041EA921104EBCC044FEAD1374FEA8262F1
:1014100006FB07FC42EA90124FEA80604FEA1C4C40
:101420000CFB0BF7D21B03FB0CF761EB07010CFB6A
:101430000EF7B0EB074072EB17420CFB08F734BF16
:10144000A2EB0742B2EB074261EB17414FEA8C5522
:101450004FEA910704EB9C2406FB07FC4FEA1C4C67
:101460000CFB0BF7B0EBC74072EB573203FB0CF7EA
:1014700034BFA2EBC742B2EBC74261EB57310CFB62
:101480000EF7B0EBC70072EB57720CFB08F734BFD6
:10149000A2EBC702B2EBC70261EB577115EB4C250B
:1014A0004FEA816141EA92114FEA82624FEAD137F5
:1014B00042EA901206FB07FC44F100044FEA806008
:1014C0004FEA1C4C0CFB0BF7D21B03FB0CF761EB38
:1014D00007010CFB0EF7B0EB074072EB17420CFB59
:1014E00008F734BFA2EB0742B2EB074261EB1741AA
:1014F00015EB1C154FEA813141EA92414FEA8232E5
:1015000042EA90424FEA80304FEA0C7644F1000400
:1015100048EA03434EEA0B484FF0000EB2EB080CCA
:1015200071EB030724BF624639464EEB0E0E4FF0B7
:10153000000B0018524149414BEB0B0BB2EB080C6E
:1015400071EB03077BF1000B24BF624639464EEB7B
:101550000E0E4FF0000B0018524149414BEB0B0BA4
:10156000B2EB080C71EB03077BF1000B24BF624662
:1015700039464EEB0E0E51EA020718BF46F001063F
:1015800016EB0E7655F1000254F1000103D5BDE8CB
:101590008901BDE80088BDE88901BDE80048B619A9
:1015A000524141EB0101A3F10103704780807F7E2E
:1015B0007D7C7B7A797877767675747372717170C9
:1015C0006F6E6E6D6C6C6B6A6A696868676666657B
:1015D0006464636362616160605F5F5E5E5D5D5C09
:1015E0005C5B5B5A5A59595858575756565555557A
:1015F0005454535352525251515050504F4F4F4EDA
:101600004E4D4D4D4C4C4C4B4B4B4A4A4A49494927
:101610004848484747474746464645454544444469
:10162000444343434342424242414141002B26D47A
:10163000770021D01CB54FEA370703B44FF01000F4
:101640004FF010014FF000000FBCBDE810400BF14F
:10165000010BBBF1010F08BF5FEA170722BF12F1B0
:10166000010211F101014FF0004143F1000300F0CC
:10167000004043EA00007047F9D35708DAE746EA2A
:10168000064613F1400F4FEA16461FDD13F1200FF7
:10169000DFBF16430A46002120335B42C8D0C3F1A6
:1016A000200746EA064602FA07F74FEA164646EAD8
:1016B0000706C3F1200722FA03F201FA07F721FA1D
:1016C00003F14FF0000342EA0702B1E746EA0206DF
:1016D00046EA06464FEA164646EA0106BCBF46EA17
:1016E0000646360C4FF000034FF000024FF00001A9
:1016F0009EE72DE9C048934630B491E8380007C80A
:1017000031EA400C48BF34EA430C03D5FFF7F2FD41
:10171000FFF78CFFF0BCBDE800882DE9C048934678
:1017200030B491E8380007C810F0804F08BF13F0BC
:10173000804F03D100F005F8FFF778FFF0BCBDE85B
:10174000008820F07F4780EA030023F07F4C07EBFE
:101750000C03A3F57C5300F00040A3F1FE0392F0CC
:10176000000F00F0B38095F0000F00F077802DE9B6
:1017700001494FEA11404FEA144621EA004800FBB4
:1017800006FC24EA064708FB06F607FB08F800FB00
:1017900007F718EB06484CEB164C4FEA124B18EBC8
:1017A00007484FEA15464CEB174022EA0B4E0BFB5D
:1017B00006FC25EA06470EFB06F607FB0EFE0BFBB2
:1017C00007F71EEB064E4CEB164C4FF000061EEBD7
:1017D000074E4CEB174B18EB0B0840F1000018EBD1
:1017E0000E0B58EB000840F100008F1A4FF000017B
:1017F0003CBFC943661B14BFB5EB040C00213CBFC2
:10180000C943F61B4FEA17444EEA8E0E27EA0445F9
:101810004FEA1C4704FB07622CEA074C05FB07F75D
:101820000CFB05F604FB0CFC16EB074642EB1742DB
:1018300016EB0C4642EB1C421BEB060658EB020271
:10184000414146EA9E0601D5BDE80189B6195241DB
:1018500041EB0101A3F10103BDE801894FEA144501
:101860004FEA114724EA054621EA074C05FB07F435
:1018700006FB07F70CFB06F105FB0CFC11EB07411F
:1018800044EB17444FEA124711EB0C4144EB1C4464
:1018900022EA074C05FB07F206FB07F70CFB06F6EE
:1018A00005FB0CFC16EB074642EB174216EB0C4609
:1018B00042EB1C456A1854F1000148BF7047B61945
:1018C000524141EB0101A3F10103704795F0000F74
:1018D00037D04FEA11424FEA144721EA024624EA80
:1018E000074C02FB07F106FB07F70CFB06F402FBB3
:1018F0000CFC14EB074441EB17414FEA154714EB7E
:101900000C4441EB1C4125EA074C02FB07F506FBA2
:1019100007F70CFB06F602FB0CFC16EB074645EB43
:10192000174516EB0C4645EB1C42121951F100010C
:1019300048BF7047B619524141EB0101A3F10103C1
:1019400070474FEA14454FEA114724EA054621EA59
:10195000074C05FB07F106FB07F70CFB06F24FF0FF
:10196000000605FB0CFC12EB074241EB174112EBA2
:101970000C4251EB1C4148BF7047921841EB0101EA
:10198000A3F101037047000022484FF6FF71017078
:10199000002080F309882048016881F308881F48E7
:1019A0004FF08051016062B6FEE71C484FF0805155
:1019B0000160704719484FF080510160704772B65E
:1019C000EFF3098050B11EF0100F08BF20ED108A10
:1019D000203880E8F00F12490968086000B5114806
:1019E00080475DF804EB104810490A7802700C48F3
:1019F0000F490A680260106890E8F00F20301EF06E
:101A0000100F08BFB0EC108A80F309884EF0040E66
:101A100062B6704722ED00E06808002004ED00E0A7
:101A200060080020313600080E0800200F08002052
:101A300064080020F0B585B00121102003F0D8FB28
:101A40000121880303F0ECFB00278DF808700125C5
:101A500018268DF80B50032401968DF8094001A932
:101A6000194800F0EFF94FF4A06000F005FB0321E6
:101A7000042003F07FFC0421084603F07BFC8DF872
:101A8000107008208DF8110003968DF8125003A8ED
:101A900000F0A0F909208DF800008DF801408DF8C4
:101AA00002408DF80350684600F0B4FA0A208DF821
:101AB00000008DF801408DF802408DF80350684613
:101AC00000F0A8FA05B0F0BD0010024001484068DF
:101AD00070470000001000E00FB41CB501A80023FF
:101AE000009005AC1A461946074800F0C3FE21468F
:101AF0000498FEF74BFC01AA0021034800F0A2FF66
:101B00001CBC5DF814FB00004C09002038B50446ED
:101B10000D48007888B10D48007870B90C4D688880
:101B2000844205D3B4FBF0F06A46082101F0ACFD15
:101B30006888B4FBF0F100FB11444FF47A70604305
:101B400000F008F838BD0000E1070020E0070020A1
:101B500024040020F8B54FF0E02700247E690D49E9
:101B6000098800FB01F5684601F0AEF9B969B8696A
:101B70008842FCD002D2A1EB000102E0A6EB0002F9
:101B800011440C440146AC42F1D3684601F0C6F959
:101B9000F8BD0000240400201CB50121102003F032
:101BA00027FB01248DF8044000208DF80600032156
:101BB0008DF805108DF8070000946946034800F081
:101BC00041F90348C0F880421CBD000000100240EB
:101BD000000042422DE9F04700261A4F80460725B3
:101BE0004FF00109002409E00A20FFF7B3FF641C4D
:101BF0000A2C03D36FF00300BDE8F087D7F800028A
:101C00000028F1D02820FFF7A5FFD7F8000290B1F7
:101C100009FA05F03043C6B2002408E00A20FFF7B5
:101C200099FF641C0A2C02D36FF00400E4E7D7F894
:101C300000020028F2D16D1ED4D588F80060002083
:101C4000DAE700000000424270B50546002400F0CB
:101C50001DF8002817DB2819FFF7BCFF002812DB4E
:101C6000641C052CF7DB3220FFF774FF28786978B5
:101C7000EA780844A978114408442979C0B281421D
:101C800002D06FF0060070BD002070BD2DE9FC474A
:101C9000012700248DF804708DF806404FF00308EA
:101CA000DFF8B0908DF80580009726468DF8074044
:101CB0006946484600F0C6F8274DC5F880722620D0
:101CC00005F52075FFF746FF2E601420FFF71EFF75
:101CD0002F602620A5F52075FFF73CFF8DF80460E6
:101CE0008DF806608DF8058000978DF807606946CD
:101CF000484600F0A7F809E00A20FFF72BFF641C14
:101D0000642C03D36FF00B00BDE8FC87D5F800020C
:101D10000028F1D1002408E00A20FFF71BFF641C13
:101D20000A2C02D36FF00100EEE7D5F8000200287C
:101D3000F2D0002408E00A20FFF70CFF641C0A2CF4
:101D400002D36FF00200DFE7D5F800020028F2D1DD
:101D5000DAE70000001002400000424208B500F03F
:101D6000F7FC082000F02CF828B16B460022012176
:101D7000044800F0E9FB082000F01CF800F0F8FC33
:101D800008BD00006C08002008B500F0E1FC102040
:101D900000F016F828B16B4600220221044800F03A
:101DA000D3FB102000F006F800F0E2FC08BD0000B4
:101DB0006C0800200149086070470000143C014095
:101DC000034A0146002012680A4200D001207047F1
:101DD000143C014030B51A4A8379016853B3136843
:101DE0008B431360111D0B680468A3430B600179DA
:101DF00011440B68046823430B60114B08331968C6
:101E00000468A14319601C1D21680568A94321606D
:101E10004179102905D011440A68006802430A601C
:101E200030BD1968026811431960216800680143D8
:101E3000216030BD0079104402688A43026030BDE1
:101E4000003C0140F0B5002201274FF0030C0B6865
:101E500007FA02F52B40AB422CD1066853000CFA6E
:101E600003F4A64306600E79D0F800E09E4046EAEF
:101E70000E0606600E79012E01D0022E12D1866860
:101E8000A64386604E79D0F808E09E4046EA0E06EA
:101E900086604668AE43466045688E799640B6B225
:101EA00035434560C568A543C560CC799C40C3688F
:101EB0001C43C460521C102AC9D3F0BD4B07DB0E73
:101EC0009A40C90810B500EB8100016A0F249C40BC
:101ED000A1430162016A1143016210BD4183704751
:101EE0000183704770B5012003F05CFA0D4D4FF48B
:101EF000806421462846FFF7F3FF660031462846F6
:101F0000FFF7EEFF0120FFF725FE31462846FFF7D9
:101F1000E5FF0120FFF71EFE21462846BDE8704080
:101F2000FFF7DCBF0004024070B50B4C4FF480613A
:101F30002046FFF7D5FFE51429462046FFF7CEFFE0
:101F40000120FFF707FE29462046FFF7C9FFBDE83D
:101F500070400120FFF7FEBD0004024070B5002074
:101F600003F020FA0120FFF7F5FD0C4E4FF48065D9
:101F700029463046FFF7B4FF0948D0F82C02012863
:101F800002D10124FFF7D0FF29463046FFF7A6FF14
:101F90000120FFF7DFFD204670BD00000004024075
:101FA000008040422DE9FC410121084603F020F960
:101FB0004020009002208DF8040000258DF8065086
:101FC0000326124F8DF8056001248DF807406946FD
:101FD0003846FFF737FF022206213846FFF76EFF2B
:101FE0008DF8044080208DF8065000908DF8056033
:101FF0008DF8074069463846FFF724FF0448C0F8CB
:102000009852C0F89C42BDE8FC81000000000240EC
:102010000000404230B50F23C27801780125FAB1A3
:10202000144A126801F1E02102F4E062C2F5E062B4
:10203000C2F30722C2F10404D3404278A24084785C
:102040001C401443220181F80024007800F01F0195
:102050008D404009800000F1E020C0F8005130BD03
:1020600001F01F0085404809800000F1E020C0F821
:10207000805130BD0CED00E0024908430249086080
:10208000704700000000FA050CED00E070B5002577
:1020900005F1B000C0B2002100F0FCF800210846B4
:1020A00000F0F8F80021102000F0F4F800240121DD
:1020B000002000F0EFF8641CE4B2802CF7D36D1C14
:1020C000EDB2082DE4D370BD2DE9F0471F469046D0
:1020D0000E4682460025DDF8209011E0314650463C
:1020E00000F09CF8544607E019F8050001216D1C2A
:1020F00000F0D0F8641CE4B24445F5D3761CF6B287
:10210000BE42EBD3BDE8F0871CB50121022003F0ED
:1021100087F84FF44060009001208DF80400002003
:102120008DF8060003218DF805108DF8070069462B
:102130003948FFF787FEC820FFF7E8FC0021AE20F2
:1021400000F0A8F80021084600F0A4F800211020B3
:1021500000F0A0F80021402000F09CF80021B02001
:1021600000F098F80021812000F094F80021FF2071
:1021700000F090F80021A12000F08CF80021A620AA
:1021800000F088F80021A82000F084F800213F200A
:1021900000F080F80021C82000F07CF80021D32056
:1021A00000F078F80021084600F074F80021D520EE
:1021B00000F070F80021802000F06CF80021D82099
:1021C00000F068F80021052000F064F80021D92013
:1021D00000F060F80021F12000F05CF80021DA2026
:1021E00000F058F80021122000F054F80021DB2004
:1021F00000F050F80021302000F04CF800218D2034
:1022000000F048F80021142000F044F80021AF202D
:1022100000F040F81CBD00000004024010B5044668
:10222000B031C8B2002100F035F8102040EA141097
:10223000002100F02FF804F00F00BDE8104000214D
:1022400000F028B82DE9F04115460E460746FFF785
:10225000E5FF0F48002400EB85150121285D00F003
:1022600019F8641CE4B2102CF7D3761CF1B238468E
:10227000FFF7D4FF00242819012190F8200000F076
:1022800009F8641CE4B2102CF5D3BDE8F08100001D
:102290003804002009B103F0F2BE03F0D9BE704744
:1022A0002DE9F0410446184890460F4600781D4637
:1022B00010B142F6E16025E014B3FEF74FF8134E7B
:1022C0003178491C3170FEF74DF81148C4E9000718
:1022D0000027C4E9088704F1080001F040FF204608
:1022E00001F000FB0B490888401C0880FEF736F817
:1022F0003178491E3170FEF735F82F80BDE8F08146
:1023000045F6C3501880F9E7E007002028080020B0
:10231000464C4147FC0700202DE9FF4F05468BB096
:102320008548DDE9186400781F46894610B146F2F9
:10233000AE10F2E0ADB148F20101781A8F4229D017
:1023400019DC40F20111A7F201108F4222D00BDC00
:10235000012F1FD0022F1DD0042F1BD0082F16D104
:1023600018E045F6C350D8E0012813D0032811D057
:1023700007280CD10EE0B0F5807F0BD0F4DDA0F57E
:102380008070013806D0022804D0062802D045F615
:102390002560C2E069492868884202D045F6C450E9
:1023A000BBE0F80501D5012000E0002080464FF099
:1023B000000B0EB1C6F800B007F00F010991FDF750
:1023C000CDFF09995E4A4FF0010E012934D0022950
:1023D00038D0042902D008297ED123E0296A01EAF5
:1023E000090ACA4524D011E021EA0A0135E0554A1C
:1023F0001268C2F884A00EB1696A3160FDF7B2FFBD
:10240000A4F800B050460FB0BDE8F08F390426D5CF
:10241000FDF7A8FF46F2B0107FE0FDF7A3FF46F6F8
:1024200063507AE0296A01EA09035FEA030AEDD002
:10243000B8F1000FDBD0D7E7296A29EA010ACA45BB
:1024400006D0E3E7296A29EA01035FEA030ADDD03F
:10245000B8F1000FCBD041EA0A012962C7E7117831
:102460000029DAD1924682F800E0FDF77BFF0D9853
:1024700000903B464A46294601A801F023FAFDF7A1
:102480006DFF9AF80010491E8AF80010FDF76AFFE8
:1024900000F0E0FCFDF762FF2A4B1A6892F8351055
:1024A00051B1012922D0022930D0032926D0FDF7CD
:1024B00059FF46F62E6030E00EB1116C3160A4F881
:1024C00000B019685F46B8F1000FD1F884602DD0D4
:1024D0000999012927D000E005E0022923D0042929
:1024E0001ED008291CD0FDF73DFF50E70EB1116C3E
:1024F0003160FDF737FF46F2A9100EE00EB1C6F8C5
:1025000000B0FDF72FFF47F2D92006E00EB1116CA5
:102510003160FDF727FF45F6C2502080002072E7AA
:10252000296AB14301E0296A31432962FDF71AFFA4
:102530002780304667E70000E0070020464C41470F
:1025400028080020600800202DE9FF411546884634
:1025500006001C460DD07DB1012D0DD0B5F5004F04
:102560000AD06FF40040C54206D045F625601880B9
:1025700019E045F6C350FAE7104F3068B84202D070
:1025800045F6C450F3E7FFF7A1FA03460C4800787C
:1025900068B1CDE90234CDE9008500231A46314601
:1025A000384601F0B9FA002004B0BDE8F0812A46AF
:1025B00041463046009401F0B3F9F5E7464C4147F7
:1025C000E007002002480068002800D0004770475C
:1025D000CC07002010B5044600F0A8F83E480022C1
:1025E000484902703D4802703D4802703D48026013
:1025F0003D4802603D4802703D4802703D4802700F
:102600003D4802603D4802603D480260086830B1C4
:102610003D48006818B1096804C0491EFCD13B4818
:1026200002603B4802603B4802603B4802603B4816
:1026300002603B4802603B4802603B48027001F088
:102640005FFE01F00DFF204601F05EF920880028B2
:1026500041D1204601F002FC208800283BD12046D1
:1026600001F020FC2088002835D1204601F0E0FC54
:10267000208800282FD1204601F080FE20880028E5
:1026800029D1204601F0D6FF2088002823D12046FA
:1026900002F072F8208800281DD1204601F052FB7C
:1026A0002088002817D1204601F002FA208800284F
:1026B00011D1204602F0F0FB208800280BD12046E3
:1026C00002F04CFC2088002805D101F0F9F8BDE8A3
:1026D0001040FFF7E4BD10BDE0070020E107002037
:1026E0002808002060080020640800200E08002050
:1026F0000F080020100800201C08002020080020DF
:10270000240800201C62000818620008C00700208E
:10271000C4070020C8070020CC070020D0070020F5
:10272000D4070020D80700203E08002005480649AD
:102730000068096800EB8100044920F00700086088
:1027400070470000186200081C620008680800203A
:1027500005480078012805D104490878FA2801D2F3
:10276000401C087070470000E1070020E0070020CF
:10277000184810B5007801282BD1FDF7EFFD164958
:102780000446087800B3401E10F0FF0008701BD10B
:1027900012480078C0B901F0A1FD11490870114933
:1027A00000EB400051F820000F4908600F4909680C
:1027B000884209D050F8901F491C01600C480168FC
:1027C000491C0160FFF7F6F82046BDE81040FDF710
:1027D000C9BD10BDE1070020E00700202808002047
:1027E0000F080020A43800206408002060080020A2
:1027F000340800202DE9F04104461A480F461546DA
:10280000007810B142F6E1602AE03CB3FDF7A6FD86
:10281000154E3178491C3170FDF7A4FD1348C4E909
:1028200000070027276284F825704020A76284F8FB
:10283000240004F1080001F092FC204601F0E6FBC0
:102840000B490888401C0880FDF788FD3178491E37
:102850003170FDF787FD2F80BDE8F08145F6C3504C
:102860001080F9E7E0070020280800204D55545853
:102870000C0800202DE9F04F06466D4889B01C4633
:102880000078129D17468B4610B146F2AE10B2E0AA
:1028900036B147B1B7F5004F05D045F62560AAE03F
:1028A00045F6C350A7E063493068884202D045F638
:1028B000C450A0E04FF000080CB1C4F80080FDF750
:1028C0004DFD96F825105C4B012281B19A46D6F851
:1028D00020C01B689C451CD1491C86F825100CB1F2
:1028E000B16A2160FDF73EFD45F2827083E0196810
:1028F000316291F8371086F8241086F825200CB143
:10290000B16A2160FDF72EFDA5F8008009B0BDE891
:10291000F08F390404D5FDF725FD46F2B0106AE0CA
:1029200046490B7823B1FDF71DFD46F6635062E082
:1029300089460A70FDF716FD376ADAF8000097F845
:10294000372090F837108A421ED997F836000828A9
:102950003BD2DFE800F004131616131316163846A0
:1029600001F0DEFDDAF8000090F8370087F8370054
:1029700001F0D2FC384601F09DFD05E087F83710E4
:1029800002E0384601F0D2FB5B460422314668463D
:1029900001F05AFBFDF7E2FC99F80020521E89F87D
:1029A0000020FDF7DFFC00F055FAFDF7D7FCDAF860
:1029B000002092F8351001B3012924D0022931D02A
:1029C000032926D046F62E6128E0FDF7C7FC99F8CA
:1029D0000010491E11F0FF0189F8001007D11849B5
:1029E000098821B1FDF7BEFC01F0C4FD01E0FDF74F
:1029F000B9FC46F62D60288088E70CB1116C216087
:102A0000A5F800800BE00CB1116C216046F2A91111
:102A100004E00CB1C4F8008047F2D9212980FDF709
:102A2000A1FC73E70CB1116C216045F6C251F5E7CA
:102A3000E00700204D555458600800202808002069
:102A4000EC0700202DE9F84F0446594815468A4600
:102A5000007810B146F20E2011E03CB1080008D019
:102A6000B1F5004F05D045F6256008E045F6C350A6
:102A700005E050492068884204D045F6C4501080D3
:102A8000BDE8F88FFDF76AFCDFF82C91226AD9F8CF
:102A900000108A4204D0FDF765FC45F281706CE0BD
:102AA000DFF8188198F80020521C88F80020FDF704
:102AB00059FCFFF70BF80646A06294F82500DFF8F2
:102AC00000B1401E10F0FF0084F8250016D0FDF77D
:102AD00045FC98F80010491E11F0FF0188F800101D
:102AE00007D1BBF8001021B1FDF73CFC01F042FD1D
:102AF00001E0FDF737FC45F283703EE0208A04F1E7
:102B00000807E0B3D9F8000094F8243090F8372093
:102B10009A4213D001F004FDD9F8001094F8240073
:102B200081F8370001F0F8FBD9F8000001F0DEFC75
:102B3000D9F80000234990F837000870386800235E
:102B40001A468168216291F8370084F82400012038
:102B500084F825002046009601F061FBFDF7FEFB9E
:102B600098F80020521E88F80020FDF7FBFB5FEA72
:102B70000A4001D400F06EF90020288080E7FFE7CA
:102B800000262662FDF7EAFB98F80010491E11F0B6
:102B9000FF0188F8001007D1BBF8001021B1FDF744
:102BA000E1FB01F0E7FC01E0FDF7DCFB2E8067E7CD
:102BB000E00700204D5554586008002028080020E8
:102BC000EC0700200E0800202DE9F04104461C48C7
:102BD0001746884600781D4610B142F6E1602CE0A9
:102BE00034B347B3FDF7BAFB164E3178491C317048
:102BF000FDF7B8FB1448C4E90008394604F1200089
:102C000001F0BAF904F1080001F0A9FA204601F038
:102C1000A3FB0E490888401C0880FDF79FFB317814
:102C2000491E3170FDF79EFB00202880BDE8F08131
:102C300045F6C35001E046F294501880F6E70000D4
:102C4000E0070020280800205155455518080020AD
:102C50002DE9F04F074689B05348DDE9125400785A
:102C60001E4691468B4610B146F2AE1040E047B189
:102C700056B110000BD0B2F5004F08D045F62560D4
:102C800036E045F6C35033E046F2D52030E0474900
:102C90003868884202D045F6C45029E04FF0000859
:102CA0000DB1C5F80080FDF759FB009023462A4678
:102CB000314607F1200001F033F98246208840B107
:102CC0005FEA09400CD50098FDF74CFB46F2B010C6
:102CD0000EE00098FDF746FB504609B0BDE8F08FC6
:102CE0003348017839B10098FDF73CFB46F6635054
:102CF00020800020F1E78146012089F8000000983B
:102D0000FDF730FB5B460522394601A801F09CF92E
:102D1000FDF724FB99F80010491E89F80010FDF713
:102D200021FB00F097F8FDF719FB224A03461168D2
:102D300091F8350060B1012815D002282AD0032867
:102D40004FF0000719D0A6F8008046F62E601BE071
:102D5000B1F86000CF6D308015B11068006C28604C
:102D6000A4F8008011E00027A6F8008015B11068D3
:102D7000006C286046F2A91006E04046A6F80080E4
:102D800005B1286047F2D92020801846FDF7EAFAFD
:102D90003846A2E70027A6F8008015B11068006C3D
:102DA000286045F6C250EFE7E00700205155455531
:102DB00028080020600800202DE9FF471E460C9CD3
:102DC0009046894605000ED04FF40070B3F5004FD1
:102DD00018D00BDCB3B1102B14D0834212D0B6F54F
:102DE000047F0CD10EE045F6C35011E0A6F5004378
:102DF000103B07D0B3F5F87F04D0834202D045F6EC
:102E0000256005E0114F2868B84204D045F6C4504B
:102E10002080BDE8FF87FEF759FE0D49097859B1BA
:102E20000021CDE90016CDE9020443464A46294671
:102E3000384600F071FEECE7CDE900043346424627
:102E40004946284601F0A6FAE3E7000051554555EA
:102E5000E0070020154810B50078002824D1144858
:102E60000078002820D1FDF779FA044601F036FAFF
:102E700010490870104900EB400051F820000F493C
:102E800008600F490968884209D050F8901F491C12
:102E900001600C480168491C0160FEF786FD204670
:102EA000BDE81040FDF75EBA10BD0000E00700204D
:102EB000280800200F080020A43800206408002003
:102EC000600800203408002070B5044610480078DF
:102ED00010B146F6625019E00E480078012802D081
:102EE00045F6896012E00C4D2878FA2802D345F2A5
:102EF00009200BE0FDF732FA06462878401C2870BE
:102F000001F05AFB3046FDF72DFA0020208070BDFD
:102F1000E0070020E10700202808002070B50446E3
:102F20001548007810B146F6655023E01348007844
:102F3000012802D045F689601CE0114E307870B14E
:102F4000FDF70CFA05463078401E10F0FF00307097
:102F500008D02846FDF706FA46F663500AE046F622
:102F6000645007E001F036FB2846FDF7FBF9FFF758
:102F700071FF0020208070BDE0070020E1070020E5
:102F8000280800202DE9F0410446184817468846D5
:102F900000781D4610B142F6E16025E014B3FDF75C
:102FA000DDF9134E3178491C3170FDF7DBF92762EA
:102FB000002710486762C4E9000804F1080001F026
:102FC000CEF8204601F024FB0B490888401C0880FD
:102FD000FDF7C4F93178491E3170FDF7C3F92F8030
:102FE000BDE8F08145F6C3501880F9E7E0070020FE
:102FF0002808002053454D41300800202DE9FF41AD
:103000000C46060015460DD07CB1B4F5007F0CD0FF
:10301000B4F5004F09D0B4F5024F06D045F625604F
:1030200010801AE045F6C350FAE7124F3068B842F4
:1030300002D045F6C450F3E7FEF748FD02460E48BD
:10304000007870B1002003950090CDE9014203465D
:1030500002463146384600F05FFD04B00020BDE86E
:10306000F08104B02B4621463046BDE8F04101F026
:10307000EDBA000053454D41E007002070B50F4DFB
:103080000446287818B145F68A60208070BD01F0AA
:1030900025F90B4908700B4908700B4900EB4000FB
:1030A00051F820000949086009490860012028708A
:1030B000FEF76AFC43F69920E7E70000E1070020ED
:1030C0000F0800200E080020A4380020640800200B
:1030D000600800202DE9FF4F83B004465D48DDE91C
:1030E0001785DDE910970078139E934610B147F2DB
:1030F0004A102BE054B1BBF1000F0AD067B156481B
:10310000006886420BD246F630601FE047F2AD10F1
:103110001CE047F24F1019E046F62F6016E01298B7
:10312000B04202D346F6316010E046F27320B9F1A6
:10313000400F0BD25FEA090103D0B9F13F0F02D073
:1031400008E0464900E046498C4203D0288007B099
:10315000BDE8F08F204601F01FFB4FF0000AA5F8F4
:1031600000A05FEAC8700AD05FEA887007D53846C9
:103170000021524601E004C0491CB142FBD3129821
:10318000CDE9006807EB80052B463A46584606997C
:1031900000F0B0F9C4F828B00699E1620499216200
:1031A00084F83790A560206015986065169867626E
:1031B000A6636060A4F83C800020514604EB8002C6
:1031C000401CD16710F0FF00F8D004F1640014999E
:1031D00000F0D2FE204600F04DF8FDF7BFF8214D7B
:1031E0002978491C2970FDF7BDF894F8370001F0E3
:1031F00093F8204601F07AF9204601F08FFA1A4937
:103200000888401C088019480078012816D0FDF76E
:10321000A5F82978491E11F0FF01297009D1144938
:10322000098831B1FDF79EF807B0BDE8F04F01F015
:10323000A1B907B0BDE8F04FFDF794B8FDF78EF8DF
:103240002978491E2970FDF78DF807B0BDE8F04FC9
:10325000FFF700BEE00700202C620008D4370020F2
:1032600010370020280800203C080020E10700203B
:10327000EC07002002490968002900D00847704780
:10328000C007002070B504463D480D46007810B1D7
:1032900047F24E100AE03B48844202D147F24C10FC
:1032A00004E03948844203D147F24D10088070BDD4
:1032B0002CB9FDF753F835490C68FDF753F8FDF7C5
:1032C0004DF8334E3178491C3170FDF74BF894F8C6
:1032D000360008283ED2DFE800F004080C0C1C0879
:1032E0000C0C204601F01CF913E0204601F000FD13
:1032F0000FE0204601F0FCFC94F83400072808D2C7
:10330000DFE800F00704070404040400204600F08E
:1033100058FF04F1640000F0E9FD204600F03EF89B
:10332000204601F00DFA1B490888401E08802046FF
:1033300001F032FAFF2084F83600FDF70FF83178FB
:10334000491E3170FDF70EF800202880BDE870405E
:10335000FFF780BDFDF702F83178491E11F0FF013B
:10336000317007D10C49098821B1FCF7FBFF01F04E
:1033700001F901E0FCF7F6FF46F62D60288070BDEC
:10338000E007002010370020D4370020600800201C
:10339000280800203C080020EC07002002490968AA
:1033A000002900D008477047C40700200249096877
:1033B000002900D008477047C80700202DE9F047D2
:1033C0008246494814460F4600781D4610B146F221
:1033D000AE1005E037B1B7F5004F03D045F62560D4
:1033E000188037E0002604B12660FCF7B7FFDFF84D
:1033F000FC808146D8F80000416CD1B1491E474697
:10340000884641640CB1006C2060FEF75FFB3968B0
:103410000A6C801AC1F8A400D1F8A820824201D217
:10342000C1F8A8004846FCF79DFF2E804046BDE845
:10343000F087380405D54846FCF794FF46F2B010F3
:1034400007E02B4F387838B14846FCF78BFF46F63B
:10345000635028800020EAE7012038704846FCF7D6
:1034600081FF002153460722084600F0EDFDFCF7DE
:1034700075FF3978491E3970FCF774FFFFF7EAFCD5
:10348000FCF76CFFD8F800108146474691F83500EC
:1034900030B1012816D003281AD046F62E601BE062
:1034A00074B1086C2060FEF711FB39680A6C801A51
:1034B000C1F8A400D1F8A820824201D2C1F8A80026
:1034C0002E800AE00CB1086C206046F2A91003E0DF
:1034D00004B1266047F2D92028803868446C4846F9
:1034E000FCF740FF2046A2E7E0070020600800202C
:1034F0002808002030B5044603984FF4805502EBAD
:10350000800020F00700002240E90252152540F813
:103510000C5C142540F8105C132540F8145C12254F
:1035200040F8185C112540F81C5C102540F8205C20
:10353000092540F8245C082540F8285C072540F858
:103540002C5C062540F8305C052540F8345C0425E9
:1035500040F8385C032540F83C5C022540F8405CAC
:10356000012540E912252A0640E914422F4A40F875
:10357000542C4FF0123240F8582C4FF0033240F8E0
:103580005C2C4FF0023240F8602C40E91A133121D4
:1035900040F86C1C302140F8701C292140F8741C44
:1035A000282140F8781C272140F87C1C262140F86F
:1035B000801C252140F8841C242140F8881C2321EC
:1035C00040F88C1C222140F8901C212140F8941CCA
:1035D000202140F8981C192140F89C1C182140F823
:1035E000A01C172140F8A41C162140F8A81C4FF07D
:1035F000113140F8AC1CD10040F8B01C4FF009313B
:1036000040F8B41C910040F8B81C4FF0073140F866
:10361000BC1C4FF0063140F8C01C4FF0053140F89B
:10362000C41D510040F8041D30BD00001D4A0008B3
:10363000114810B5006800B18047FEF747FA0F49FE
:103640000F4A09681368994209D0D1F89820821A64
:10365000C1F89420D1F89C402244C1F89C20094A2A
:10366000C3F89800D1F8B4301068834201D2C1F891
:10367000B4000020106010BDD407002060080020B6
:1036800064080020240800202DE9F0410646264861
:103690000D461446007810B147F2752030E0234FF4
:1036A000387810B146F663502AE045B1022D06D0B5
:1036B000042D05D0082D02D045F6256020E0EEB19E
:1036C000FCF74CFE3978491C3970FCF74BFEDFF8EB
:1036D000608001212346D8F800002A4680F8361081
:1036E000314601F099FA208868B1FCF737FE397845
:1036F000491E3970BDE8F041FCF734BE47F27E2028
:103700001080BDE8F081D8F8000000F009FFFCF758
:1037100025FE3978491E3970FCF724FEFFF79AFB25
:1037200000202080EDE70000E007002028080020AE
:103730006008002000B585B000F01CF8FEF7C6F95F
:1037400004AA002103920091CDE90110064807491F
:10375000002300781A4600EB400001EB800104488A
:1037600000F0DAF905B000BD0E080020A4380020F2
:103770005449434B02480068002800D00047704776
:10378000D80700202DE9F05F04462848DDE90A9BB0
:1037900000780D9D984616468A4610B147F2433090
:1037A00042E044B14846B9F1010F0DD0022805D0DE
:1037B00045F6256038E045F6C35035E0B8F1000F16
:1037C00003D147F240302FE066B3FCF7C7FD184F36
:1037D0003978491C3970FCF7C5FD012084F82A00AE
:1037E00026620026A661C4F824801248E661C4E976
:1037F000000AA4F82890C4F808B00C98C4E903069D
:103800002046666101F09CFB0B490888401C08803B
:10381000FCF7A4FD3978491E3970FCF7A3FD2E8012
:10382000BDE8F09F47F23F302880F9E7E00700202D
:1038300028080020544D52204C080020F8B50546B9
:103840001D480C46007810B147F2433009E035B10D
:103850001A492868884206D045F6C45028E047F245
:103860004230088025E06846FFF72EFB95F82A10C5
:10387000C9B1002601290CD0022907D0032908D09C
:103880006846FFF74BFB47F2413011E0284601F054
:1038900089FC0021284601F0E3FB6846FFF73EFB68
:1038A00026800120F8BD6846FFF738FB47F23D301F
:1038B00020800020F8BD0000E0070020544D522079
:1038C0007047000030B4064C029D246844F8802FF5
:1038D0000022238162602B4630BC012200F0B4BB81
:1038E000600800200023074A05A14361C1611168F7
:1038F00019B181614861106070478361FBE7000086
:1039000020000000F8070020034A00211160034A4C
:103910001180018070470000F8070020FC0700209C
:103920002DE9F0479A4690460D460446089EFCF75E
:1039300015FD01465FEA080022D0012807D0B0F546
:10394000004F1DD06FF4004218EB020F12D1206A15
:10395000A843C4E9080A208A04F108054FF00009C9
:1039600088B1394F3878401C38700846FCF7FAFCAB
:103970002D6841E00846FCF7F5FC45F625605FE060
:10398000206A2843E5E70846FCF7ECFCA6F800901F
:10399000206ABDE8F08790F888106D6801F00F018B
:1039A000012918D002291ED004290AD008290DD0D7
:1039B000FCF7D4FC3978491E11F0FF01397033D07F
:1039C0003AE0216AD0F88020114009E0216AD0F85D
:1039D000802011400BE0D0F88010236A0A469943FA
:1039E0008A4205D007E0D0F88010226A914311B1D5
:1039F000524600F02DF815B1A8680028CBD1FCF78D
:103A0000ADFC3978491E3970FCF7ACFC5FEA084020
:103A100001D4FFF71FFAFCF7A1FC246AFCF7A2FC13
:103A2000A6F800902046B4E70849098821B1FCF7C0
:103A300099FC00F09FFD01E0FCF794FC43F6FF20A9
:103A400030800020A5E7000028080020EC070020B7
:103A500070B50025C0F8841080F8355080F83450D7
:103A60000446026490F8360008280ED2DFE800F021
:103A70000D0D04040D0D0A0A204600F063FF84F8C2
:103A8000365002E0042084F836002046BDE870403D
:103A900000F097BB054CFCF761FC2168491C2160D4
:103AA000FCF760FCFEF78EFDF5E70000DC07002068
:103AB00000B50E4A89B0002111600B2205910691D4
:103AC000CDE907200A480B4A0B4B006812681B68B7
:103AD0000292CDE903013F20CDE900030023074A0C
:103AE00007A10C48FFF7F6FA09B000BDDC0700207B
:103AF000F8610008F4610008F0610008953A0008D8
:103B000075432F4F532D4949492049646C65205412
:103B100061736B00103700202DE9F05F1E46DDE970
:103B20000AAB90460F4681460D9CFCF717FC1D49D9
:103B30001D4A05460888128890422BD2401C80B24C
:103B400008801A490A88824200D20880184A106800
:103B5000C0F80090C0E902780682C0F814A0A0F86E
:103B600018B00C99C16140681060124801210181B0
:103B7000114901604160002000F0CEFB0F48007841
:103B800008B10F490870002020802846BDE8F05F8A
:103B9000FCF7E8BB0B480188491C018044F25360E4
:103BA000F2E70000EC070020E6610008EE070020C5
:103BB000E4070020A4380020D43700200E0800209D
:103BC00010080020F00700203EB53248324A02AB10
:103BD000006801688C1A914245D015DC2F4A89187B
:103BE0002DD02F4A891822D02E4A891832D02E4A39
:103BF000D14208D1C169CDE90013038B028AC168A3
:103C0000806800F029FE3EBD284961181DD0284A71
:103C1000891823D0274AD142F5D1C169CDE90013D3
:103C2000038B028AC168806800F0B4FB3EBD00933C
:103C3000028BC36941698068FFF772FE3EBD018B4C
:103C4000C269806800F002FD3EBD8068194600F040
:103C500087FE3EBD018BC269806817E08068194607
:103C600000F070FF3EBDC2690021134800F0E2FE83
:103C700012490868401E0860F4D1114800680860C5
:103C8000FDF724FF024602AB00210E4800F0D2FEF1
:103C90003EBD0000E80700205449434BADBAB2BE18
:103CA0000DF90BFAF2F8F7FF0006F6FF00F7FDF743
:103CB00000FFEFFF03FE0FFEA43B00205C08002086
:103CC00058080020683C00201A4F1B4C0025DFF8E4
:103CD0006C80FCF743FB06462088E8B13046FCF7D1
:103CE00041FBFDF7F3FE0646FFF76EFFFDF7EEFE24
:103CF0003968801B814200D23860FCF72FFBD8F86E
:103D000000205268C8F800202188491E2180FCF755
:103D100029FB002DDDD0D9E7094900200881086082
:103D2000486000F009FB3046FCF71CFBFFF792F8F7
:103D3000CCE70000F4070020EC070020E807002093
:103D4000A4380020F0B52F492F4D89B000240C80F5
:103D5000296831B12D4E3188022905D244F25461CF
:103D600035E044F2526132E029490023294F0C60CA
:103D7000296801F1200210E041F8087B5B1C41F842
:103D8000084B9BB241F8044C21F8104B41F80C4C05
:103D900021F8084C41F81C2C2032B6F800C06345CD
:103DA000EAD32A6841F81C2C1B490A601B490A60A7
:103DB0001B491D4A0C801B490C80116851B11B49DD
:103DC0001B4D0B682D68AB4207D244F2566101804F
:103DD00009B0F0BD44F25561F9E703230594069458
:103DE000CDE9073008681349126800230968CDE956
:103DF00003040094CDE901210F4A10A11648FFF7F2
:103E000069F9E5E7F007002000620008E6610008B4
:103E1000F40700204E4F4E45E4070020E80700203D
:103E2000EC070020EE07002008620008106200087E
:103E30002C6200080C620008C93C000875432F4F33
:103E4000532D4949492049535220517565756520C4
:103E50005461736B00000000D4370020034A002136
:103E60001160034A118001807047000000080020A3
:103E70000408002010B5491E8CB2002100F1100288
:103E80000B4608E0E0E80223491C20F8083B89B211
:103E900040F8043C1032A142F4D303604360038134
:103EA000C36010BD70B50E4D0446286880B10D4E3C
:103EB000308880B181B22868FFF7DCFF0A482968A2
:103EC0000160318881800021C1800181218070BD25
:103ED00045F21E7001E045F21D70208070BD0000AB
:103EE00028620008E86100089838002010B542896F
:103EF00092B10A4903680C681C6043680B60CB8868
:103F000044891B1BCB808B88448923448B800021F0
:103F10004181818101604160104610BD98380020C8
:103F2000F0B544890025CCB14468278966680F80C4
:103F30000AB1E168116021684160B9B14189491E47
:103F400041810C480168216004608188491C81809E
:103F5000C188491EC1801D803046F0BD0D8002B170
:103F6000156046F2925018800020F0BD0560458132
:103F7000E7E700009838002001810021418181811C
:103F80000160416070470000F0B54489DDE905E655
:103F90000589AC4202D346F293501EE01A4DAF8819
:103FA000CFB12C687F1ED4F800C0C5F800C0AF8028
:103FB000EF887F1CBFB2EF80B5F808C0BC4500D2C7
:103FC0002F814789002557B1DB060CD403681C609C
:103FD000256004600AE045F21D703080F0BD046089
:103FE0000123446004E043682360446043895B1C10
:103FF000438187899BB29F4200D283816160228185
:10400000C4F80CE03580F0BD983800200023074A42
:1040100005A14361C161116819B1816148611060F6
:1040200070478361FBE700002000000008080020C3
:10403000034A00211160034A11800180704700008B
:10404000080800200C0800202DE9F041114D07461A
:104050000C4628680026194680F8342080F8356020
:1040600000F046FB64B1FC6004F108060122394609
:10407000286800F011F83946304600F075F802E083
:104080002868C687066320462968BDE8F04100F02D
:104090001BB800006008002010B5C287002423462A
:1040A00001630EE04B6041F8103B641C41F8103B8B
:1040B000A4B241F80C3C21F8083C41F8043C41F81A
:1040C000180C9442EED310BD38B14268C1F8C0203C
:1040D00081688968096AC161704791F834000228D3
:1040E00003D0072803D004A002E004A000E005A04C
:1040F000C1F8C00070470000200000005461736BDD
:10410000205100005461736B2053656D0000000066
:1041100005A2C1F8C020816811B18968096A00E070
:1041200001A1C161704700002000000070B580F857
:104130003710C58F046B0FE0E668308A0836012817
:1041400007D92146304600F04FF82146304600F0AE
:104150000BF86D1EADB22034002DEDD170BD0021E5
:10416000016041600181704730B58A68002592F88E
:10417000374002891AB1521C028102680BE0012209
:1041800002814D600D60016014E0936893F8373050
:10419000A34203D85268002AF7D107E032B113686E
:1041A00053B1C1E900325960116030BD4D604268C1
:1041B0000A605160416030BD1160C1E90052016088
:1041C00030BD70B50646C58F046B07E0E068214638
:1041D000083000F009F86D1EADB22034002DF5D185
:1041E0000020F087306370BD10B502890024012AD9
:1041F0000BD00A6862B14B6873B153601A600289D0
:10420000521E02814C600C6010BD04604460F6E7F1
:104210004A6814600260F2E754604260EFE7F8B564
:104220000C46054691F836100026069808293BD220
:10423000DFE801F03A3A04043A3A202094F83410C6
:10424000032911D0E265A4F86030206435B120461E
:10425000FFF7B7FF21462846FFF75AFF204600F038
:1042600071FB84F836601BE000902146284600F080
:1042700022F8EBE794F83410032916D0E265A4F88D
:1042800060302064204600F033FD35B12046FFF752
:1042900098FF21462846FFF73BFF042084F83600AC
:1042A00084F8356084F83460F8BD009021462846D3
:1042B00000F001F8E6E770B50C6B049DC98F0AE0C9
:1042C000E668864204D1C4E904022383E56170BD37
:1042D000491E89B220340029F2D170BD10B50024E6
:1042E000064802E02034E4B2001D01680029F9D03C
:1042F0000846FCF73EF82044C0B210BDB8070020C5
:104300000020044A014642F82010401C0228FAD33B
:1043100070470000B807002000F01F02410901208B
:10432000C2F11F029040034A52F82130034342F881
:1043300021307047B807002000F01F02410901201A
:10434000C2F11F029040034A52F82130834342F8E1
:1043500021307047B80700200023074A05A14361B8
:10436000C161116819B18161486110607047836152
:10437000FBE700002000000014080020034A002191
:104380001160034A1180018070470000140800206A
:10439000180800202DE9FF4F83B01E46DDE9107A92
:1043A00093468146FBF7DAFFDFF8AC8098F80020EF
:1043B000521C88F80020FBF7D5FFB9F8104009F12E
:1043C000080024B1B10500D4012405682FE0F006EF
:1043D00001D4002300E01023CDE9007A5A4609F108
:1043E00020000499FFF7D0FDFBF7B8FF98F8001004
:1043F000491E11F0FF0188F8001009D117490988FA
:1044000031B1FBF7AFFF07B0BDE8F04F00F0B2B835
:1044100007B0BDE8F04FFBF7A5BFA9686D685B4624
:1044200000974846049AFFF7FAFE641EA4B2002CD7
:10443000F3D1FBF793FF98F80020521E88F8002074
:10444000FBF790FF300401D4FEF704FD0021AAF829
:10445000001007B0BDE8F08F28080020EC0700200E
:104460000020074B024600EB400103EB8101401C9A
:104470000A810A60C0B24A604028F4D37047000045
:10448000A438002010B5044690F83700FFF744FF29
:10449000074994F8370009788842204603D1BDE8DF
:1044A000104000F023B8BDE8104000F003B8000051
:1044B0000E08002090F837100B4A01EB410102EB87
:1044C000810100230A8942B1521C0A810A68C0E9AD
:1044D00003230A6810610860704701220A81C360E3
:1044E0000361086048607047A438002090F83710D6
:1044F0000A4A01EB410102EB810100230A893AB12A
:10450000521C0A81C3604A680261D06048607047EB
:1045100001220A81C36003610860F7E7A438002024
:1045200070B5044690F83700114900EB400001EBEC
:104530008001D4E90320002540B10B895B1E0B816B
:10454000C26092B110612561E56070BD2AB1088931
:10455000401E088115610A60F5E70D810D604D6010
:1045600094F83700FFF7E8FEEDE74860EBE700005E
:10457000A438002010B5FBF7F1FE0B4904460020DB
:1045800008700B480949016051F8900F401C086001
:1045900008490868401C0860FDF707FA2046BDE896
:1045A0001040FBF7DFBE00000F080020D4370020CA
:1045B0006408002034080020044810B50078012861
:1045C00003D1FDF783FA0249086010BD28080020D6
:1045D0001C0800200A4810B5007800280ED1FDF70D
:1045E00075FA08490968401A07490A68824200D2E8
:1045F000086006490A68824200D2086010BD0000C7
:10460000280800201C080020200800202408002082
:104610000023074A05A14361C161116819B1816195
:104620004861106070478361FBE7000020000000D4
:104630002C080020034A00211160034A11800180E8
:10464000704700002C080020300800202DE9F84FAA
:104650001F46904689460646FBF780FE318A06F1E2
:1046600008054FF0000B69B1DFF880A09AF8002030
:10467000521C8AF80020FBF775FE5FEA895012D5BC
:104680002C8911E0346A611C05D0641CC6E9084815
:10469000FBF768FE26E0FBF765FE46F6C55038805E
:1046A0000020BDE8F88F01242D680AE0A9686D6834
:1046B00000231A463046CDF80080FFF7B0FD641E97
:1046C000A4B2002CF2D1346AFBF748FE9AF800201D
:1046D000521E8AF80020FBF745FE5FEA094001D42C
:1046E000FEF7B8FBA7F800B02046DAE7280800205C
:1046F00038B50446022531B16B46022200F08CFA2F
:10470000BDF8000028B184F836502046FFF708FFB6
:1047100038BD032084F83600F7E70000074B00227D
:10472000C0F8B820196829B1C0F8BC10C1F8B800A9
:1047300018607047C0F8BC20FAE700003808002075
:10474000D0E92E2100234AB181B1C2F8BC10C1F8D2
:10475000B820C0F8BC30C0F8B8307047054A1160C6
:1047600009B1C1F8B830C0F8BC307047C2F8BC30ED
:10477000F1E7000038080020044A00211160044AD3
:104780001180044A11600180704700003808002041
:104790003C0800203408002070B5002505608560C5
:1047A0004560C560056145610446856127A0C4E98F
:1047B00007506562A562E5622564E565A4F860506E
:1047C000294604F16400FFF7D7FB6567A567C4F8C5
:1047D0008050A4F888500020C4F8845004EB800175
:1047E000401CCD6710F0FF00F8D06564C4F8A450F9
:1047F000C4F8A850A56384F88A50C4F8B050C4F82F
:10480000AC50A5874FF00040C4E9120525656565E9
:10481000A565A4F88C50A4F88E50C4F89050C4F844
:1048200094503434FDF752F9C4E91905C4F88050A6
:1048300004F8015B402004F8015B04F8015B04F814
:10484000810B04A020C4C4E9005070BD3F546173C3
:104850006B000000200000002DE9FC5F9946DDE9B7
:104860000C7592468B460446FBF778FD324E317844
:10487000491C3170FBF776FD0CB930480468002004
:10488000288094F83600DFF8B88008283CD2DFE8AA
:1048900000F004041E1E04041E1ECDE900754B46E4
:1048A0005246594604F16400FFF76EFBFBF756FDD4
:1048B0003178491E11F0FF01317021D1B8F8001094
:1048C000F1B1FBF74FFDBDE8FC5FFFF753BE94F875
:1048D00034000228E1D153465A4621460020009771
:1048E000FFF79DFCFBF73AFD3178491E3170FBF76D
:1048F00039FD5FEA09401CD4BDE8FC5FFEF7AABAA7
:10490000BDE8FC5FFBF72EBDFBF728FD3178491EA3
:1049100011F0FF01317007D1B8F8001021B1FBF799
:1049200021FDFFF727FE01E0FBF71CFD46F62D6099
:104930002880BDE8FC9F00002808002060080020B7
:10494000EC07002010B5044600F0D2F994F83610B8
:10495000490704D42046BDE81040FFF793BD10BDC1
:1049600070B50D460446FBF7F9FC00262E8094F83E
:10497000361008294AD2DFE801F0040404040A23AF
:10498000333DFBF7EFFC47F25310288024E0224D23
:104990002978491C2970FBF7E5FC94F88A00401E31
:1049A00010F0FF0084F88A0004D184F836602046B5
:1049B000FFF7C8FFFBF7D2FC2978491E297009E0F0
:1049C00094F88A10491E11F0FF0184F88A1001D171
:1049D000012118E0FBF7C6FCBDE87040FEF73ABACB
:1049E00094F88A10491E11F0FF0184F88A10F1D161
:1049F000022108E094F88A10491E11F0FF0184F8A2
:104A00008A10E7D1032184F83610E3E7FBF7AAFC0C
:104A100046F62D60288070BD28080020044808B59F
:104A20000068FEF7C3FC69460020FEF72BFC08BDBA
:104A3000600800202DE9F84F984616468A4604463D
:104A4000FBF78CFC3C4D2978491C2970FBF78AFC4C
:104A50000CB93A4804680020394F2664A8F80000D1
:104A600094F8360046F6C55908284DD2DFE800F024
:104A70002525212125252121FBF774FCFFF77AFD4F
:104A800001E0FBF76FFCA8F800900020BDE8F88F6C
:104A9000761C6664FBF762FC2978491E11F0FF0161
:104AA00029702ED1398861B3FBF75CFCFFF762FDFA
:104AB00040E094F8340007280ED0666C701CE7D1F3
:104AC000FBF74CFC2978491E11F0FF012970D8D161
:104AD00039880029D5D0CFE700231A462146184649
:104AE0000096FFF79CFB666CFBF738FC2978491EA3
:104AF0002970FBF737FC5FEA0A401BD4FEF7AAF9DE
:104B000018E0FBF72FFC15E0FBF728FC2978491E7D
:104B100011F0FF01297006D1398821B1FBF722FC81
:104B2000FFF728FD01E0FBF71DFC46F62D60A8F815
:104B3000000000263046A9E7280800206008002071
:104B4000EC0700202DE9F0410D460446FBF706FC7A
:104B5000244904B90C680968234E8C4206D1317887
:104B600021B1FBF7FFFB46F6635038E000212980B6
:104B700094F83610012708292DD2DFE801F0041738
:104B80001F21272727273178491C3170FBF7EAFBC3
:104B9000042084F8360084F88A702046FFF7C0FCB1
:104BA000FBF7DCFB3178491E317001E0052108E09C
:104BB000FBF7D8FBBDE8F041FEF74CB9062100E059
:104BC000072184F8361084F88A70F1E714F88A1FF8
:104BD000491C2170ECE7FBF7C5FB46F62D602880E9
:104BE000BDE8F081600800202808002010B50020F2
:104BF0000246074B074C06E003EBC001401C0A606D
:104C00008A80CA8080B221888842F5D310BD000016
:104C100000340020EA610008F0B5324C002647F26B
:104C20007E252468042A08D0B1B32E4D082A2D68A9
:104C30000D440BD0C0E9135115E00A1B521E12F5AA
:104C4000803F2AD8521CC0E913120CE0826C0A443F
:104C5000171B7F1E8F4201D2C26400E0C564C16C85
:104C60000A1B02658164204AC16C1288B1FBF2F50F
:104C700002FB15111D4A89B202EBC102918889B16C
:104C80001168F1B1CD6C2D1B0D65076DAF4212D9C6
:104C90004D6965B12946F5E7FFE7C6640665C6615B
:104CA0001D80F0BD46618661012110600BE0C0E906
:104CB0000561486105E08C6974B1C0E90514606163
:104CC00088619188491C9180D48889B28C4200D235
:104CD000D180C2611E80F0BDC0E9051688611060F8
:104CE000EFE7000040080020EA61000800340020DF
:104CF00010B5C169002915D0002404650A688242F4
:104D000004D142690A6032B1946104E0D0E905231C
:104D10005A6102B1936144618461C461C46488884A
:104D2000401E888010BD00002DE9F05FFBF716FBE8
:104D3000494A1178491C1170FBF714FBFCF7C6FEB9
:104D4000464E8346464930684FF00309401C3060A8
:104D500009880025B0FBF1F201FB1200414980B245
:104D60002F4651F830404FF0040AC4B394F836008F
:104D7000D4F8148008284DD2DFE800F04C044C1021
:104D80004C254C32E06C3168421A2265884240D191
:104D900084F836702046FFF7D5FD3BE0E06C3168C3
:104DA000421A2265884234D1E765A4F86070FCF7A6
:104DB0008DFE20642046FFF704FA2046FFF7C2FD6F
:104DC00084F8367020E0E06C3168421A226588422F
:104DD0001FD184F836A02046FFF78AFF1AE01CE0B6
:104DE000E06C3168421A2265884212D1E765A4F866
:104DF0006070FCF76BFE20642046FFF7E2F9204666
:104E0000FFF776FF84F836A084F8359084F8347084
:104E100000E001254446002DA7D0FCF757FE1249BB
:104E2000A0EB0B000A68824200D20860FBF796FAFA
:104E3000094A1178491E11F0FF01117008D10B4980
:104E4000098829B1FBF78EFABDE8F05FFFF792BB46
:104E5000BDE8F05FFBF786BA280800204008002074
:104E6000EA6100080034002044080020EC0700201C
:104E70001CB5084C00216B4601AA0846FEF79EFAB5
:104E8000BDF800000028F5D120780128F2D1FFF705
:104E90004BFFEFE7E107002030B504461A4889B020
:104EA0000025056019480560FFF7A0FE184A106844
:104EB00040B11848184B01681B68994205D247F267
:104EC000132008E047F2122005E014490B783F2B2D
:104ED00004D347F21120208009B030BD0B23059583
:104EE0000695CDE907340E4B006812681B68CDE9C2
:104EF000023001920495087800900023094A0AA123
:104F00000E48FEF7E7F8E7E74008002044080020D5
:104F1000346200083C6200082C620008E46100086A
:104F200038620008714E000875432F4F532D4949D0
:104F300049205469636B205461736B00A43B0020CB
:104F4000054B0022C262196819B10163C86218607A
:104F500070470263FBE700004808002030B52A498B
:104F600089B00023294A0B60294C2A4915681DB1D4
:104F70002468B4FBF5F203E022680A24B2FBF4F2E1
:104F80000A601146244A274C274D116023490B60C3
:104F900023490B60002106E004EBC102491C938009
:104FA000D38089B213602A889142F5D31F4C2168BF
:104FB00041B11F491F4D0A682D68AA4205D247F228
:104FC000483108E047F2473105E01B4A15783F2D8C
:104FD00004D347F24631018009B030BD0B2505935B
:104FE0000693CDE907500868144924680968CDE99B
:104FF000021004930194107800900023104A11A12C
:105000001648FEF767F8E7E74808002048620008FE
:1050100030620008580800205C0800205408002076
:105020005008002088360020EC6100084C6200081F
:10503000546200082C620008E56100085062000814
:10504000F950000875432F4F532D494949205469A1
:105050006D6572205461736B00000000683C002095
:1050600070B5022280F82A20204A012913681ED038
:10507000016AE1B11E4A1944816112880025B1FB21
:10508000F2F402FB14121B4C92B204EBC20214683D
:105090007CB1C91AC1611168D1B18C69E41ACC61C3
:1050A000C669A6420ED90C6944B12146F5E7416AAA
:1050B000E0E705614561106001200BE0C0E90451A3
:1050C000086105E04B6963B1C0E9041318614861E8
:1050D0009088401C9080D18880B2814200D2D080DC
:1050E00070BDC0E9041548611060F1E75408002064
:1050F000EC610008883600201CB5DFF898B0DFF8B6
:105100009880DFF898A000216B4601AA0846FEF7B8
:1051100055F96846FDF7D8FEFCF7D8FC0746D8F8E5
:1051200000004FF00309401CC8F80000BBF8001055
:105130000026B0FBF1F301FB1300194980B251F8CE
:105140003040ACB1A169D8F80000256981420FD187
:10515000204600F027F8208D022816D084F82A90E7
:10516000A26812B12046E16890472C46002EE8D094
:10517000FCF7ACFCC41B6846FDF7D0FEDAF8001063
:10518000A142C0D2CAF80040BDE701212046FFF786
:1051900067FFE5E7EC610008540800205008002094
:1051A0008836002010B5104A816900241288B1FBAE
:1051B000F2F302FB13110D4A89B202EBC10102693D
:1051C0000B68834203D10A602AB1546103E043694A
:1051D0001A6102B15361012280F82A2004614461FE
:1051E0008888401E888010BDEC6100088836002049
:1051F000044A0029116801D0014300E08143116095
:105200007047000030380240044A0029116801D07C
:10521000014300E0814311607047000040380240C4
:10522000044A0029116801D0014300E08143116064
:10523000704700004438024070B5204B1968204C7C
:1052400011F00C0104D06610042903D0082903D002
:1052500004601BE0066019E0184A121F1168C1F3D0
:105260008055116801F03F0115B1B6FBF1F101E085
:10527000B4FBF1F114681268C4F388146143C2F3FB
:105280000142521C5200B1FBF2F1016019680F2279
:1052900002EA11110B4A545C0168E14041601C684C
:1052A000072505EA9424145D21FA04F484601B6840
:1052B00005EA5333D25CD140C16070BD083802406A
:1052C0000024F4001404002010B54FF4805420464C
:1052D00000F01EF800280AD0054901204860204649
:1052E00000F008F86001BDE81040FCF763BD10BD98
:1052F00028040020C0F30F1040F08000C143034891
:10530000026802F080021143016070470C280040DF
:105310000B4A0021126802F00403094A383A126865
:1053200003EAD03302401A43064B1B6803EA10100D
:1053300003D00004000C00D0012108467047000093
:10534000402800400C28004010B54FF4804420460F
:10535000FFF7DEFF00280AD005490120086020463B
:10536000FFF7C8FF2002BDE81040FCF723BD10BDC9
:105370002804002010B58A0721F003040849120F01
:1053800021440F23D1F8084893409C43C1F80848B2
:10539000D1F8083890400343C1F8083810BD000028
:1053A0000030014004490A6822F440020A600A6899
:1053B00042EA805008607047000402400CB50022A9
:1053C000274900920192086840F4803008604FF449
:1053D000A043086800F4003001900098401C009041
:1053E000019810B900989842F3D10868800334D529
:1053F000012001901A484030026842F08052026059
:105400001848026842F440420260154808300268B9
:105410000260026842F400420260026842F4A05254
:105420000260031F104A1A600A6842F080720A6024
:105430000A689201FCD50D4940F205720A600168C4
:1054400021F003010160016841F00201016001687F
:10545000C1F381010229FAD10CBD01920CBD0000FB
:10546000003802400070004008544007003C0240F1
:105470004FF0E0210428086903D020F004000861FF
:10548000704740F00400FAE7064810B5007801289C
:1054900007D1FDF75DF9FEF74DF9BDE81040FDF7C6
:1054A00067B910BDE1070020124810B5016841F44A
:1054B000700101601048016841F0010101600E4A6D
:1054C00000210832116002680C4B1A400260031D73
:1054D0000B4A1A60026822F48022026006480C30EF
:1054E0000160FFF76BFF03494FF0006080390860EF
:1054F00010BD000088ED00E000380240FFFFF6FE1E
:105500001030002410B56FF00400FFF7B1FF104811
:105510001049114B0068124CB0FBF1F2B0FBF1F0F6
:105520001A800E4A1168B4FBF1F1414310684FF440
:105530007A72B2FBF0F058804FF0E020026942F03E
:10554000020202614161016941F00101016110BD86
:105550000004002000127A002404002030620008B9
:1055600040420F000EB5174E0DF108084FF4847934
:1055700000274FF400744FF0E025CDE900784B464A
:10558000002203211048FCF7C7FEC10713D0C5F85D
:105590008041D6F8100258B90CA0FCF79DFA0A20F9
:1055A000FCF7B4FAD6F80C0210B908A0FCF794FA8C
:1055B000C5F80041E1E78007DFD509A0FCF78CFAC8
:1055C000DBE70000000042426C0800206275747442
:1055D0006F6E203120736574646F776E0D0A000062
:1055E000627574746F6E203220736574646F776EA9
:1055F0000D0A000008B51EA0FCF76EFA4FF47A758C
:10560000224CFCF743FD2846FCF780FA00221146A5
:105610001046FCF717FE012200211220FCF712FEB3
:10562000022200212420FCF70DFE03220021362057
:10563000FCF708FE042200214820FCF703FE0522A7
:1056400000215A20FCF7FEFD062200216C20FCF709
:10565000F9FD2846FCF75AFA002108238022084663
:105660000094FCF731FD2846FCF750FAC9E700002A
:105670005461736B5F446562756720697320637260
:1056800065617465206F6B0D0A000000000000204A
:105690001FB50024019412A00294FAF77DFE03AD19
:1056A0004FF4FA66019401A80294FCF7CDFA0100C8
:1056B00008D012A0FCF710FA03AA08213046FDF723
:1056C000E3FFEFE70023052201A913480095FDF74A
:1056D00073FB114803AA00218838FDF78FFCEBE724
:1056E0005461736B5F446874313120697320637255
:1056F00065617465206F6B0D0A0000006468743189
:10570000312072656164206572726F7220636F640C
:10571000652025640D0A00001C0900201FB5002526
:10572000ADF808500BA0FAF737FE03AECDE90056EE
:10573000002202AB11460E48FDF78AFA0400F5D0AC
:1057400001460CA0FAF728FEBDF808102046FAF72B
:105750008DFFEBE75461736B5F455350383236363B
:1057600020697320637265617465206F6B0D0A0098
:10577000BC08002025730D0A000000002DE9F0434D
:105780008BB059A0FAF708FEFCF70CFCFCF752F9B5
:10579000FCF702FA00F052FBFCF7B6FC09AB002262
:1057A00058A15C48FDF7EEFB5A4809AA5AA1B83047
:1057B000FDF720F8574809AB01225AA12830FDF720
:1057C00003FA544809AB01225AA15830FDF7FCF9FD
:1057D000504809AB0A225BA18830FDF7F5F94D4826
:1057E00009AB00225AA12838FCF75AFD5C48022177
:1057F000CDE90010474809AD002464230A2259A1CD
:10580000E430CDE90245FDF7BDFF05940694CDE9EE
:1058100007454FF004093321544ACDF80090CDE9F3
:1058200001214FF40070CDE9030450480023504A91
:1058300050A1C438FDF74EFC05940694CDE9074508
:105840004FF006080C274E48CDF80080CDE901073F
:105850008026CDE9036400234A4A4BA1C438FDF7F2
:1058600039FC05940694CDE907454A48CDF80080F7
:10587000CDE90107CDE903640023474A47A1C438B5
:10588000FDF728FC0594069419274748CDE90745FC
:10589000CDE901070520009076004348CDE9036477
:1058A0000023424A42A1C438FDF714FC0594069433
:1058B000CDE907454148CDF80090CDE90107CDE994
:1058C000036400233E4A3FA1C438FDF703FC11489E
:1058D00009A9E430FDF7B2FF09A90020FDF7D2FCC9
:1058E0000BB0BDE8F08300005461736B5F496E69D3
:1058F0007420697320637265617465206F6B0D0A93
:105900000000000064687431315F66696E69736815
:1059100000000000940800207072696E745F6D755D
:105920007465780075736172745F71756575655F14
:105930003200000075736172745F71756575655F23
:105940003100000064687431315F71756575650000
:10595000675F666C61675F67726F7570000000005B
:10596000D559000874696D6572000000340D00207F
:10597000F55500085461736B5F44656275670000FC
:10598000F8150020915600085461736B5F446874E9
:1059900031310000BC180020655500085461736B5C
:1059A0005F427574746F6E00801B0020D959000827
:1059B0005461736B5F5732355131360044200020FB
:1059C0001D5700085461736B5F45535038323636AB
:1059D0000000000070470000ADF5007D10A0FCF74E
:1059E0007BF86C464FF47A7500216154491C89B2EA
:1059F0000A29FAD3002000F0FDF96A460A210020A6
:105A000000F0B0FA40AA0A21002000F049FA002173
:105A1000491C89B20A29FBD32846FCF777F8E3E74B
:105A20005461736B5F57323551313620697320638F
:105A30007265617465206F6B0D0A00002DE9FC41F1
:105A40000024FCF785FE1A4E40F2255739463046B1
:105A500000F08FF8012825D1304600F017F9164DD7
:105A600014496A7888546878085C23281ED06878BE
:105A70001E281BD06878401C68708021304600F0DA
:105A800071F80028F9D03946304600F05BF84CB187
:105A900001A800906A78002306490848FDF78CF9B0
:105AA00000206870FCF764FEBDE8FC810124E4E797
:105AB000001001406224002030040020EC08002087
:105AC0002DE9FC410024FCF743FE1A4E40F2255715
:105AD0003946304600F04DF8012825D1304600F017
